:020000040800F2
:10000000D00700206D02000877300008CB2C0008D4
:1000100075300008D1160008733200080000000097
:100020000000000000000000000000007B3000081D
:10003000D316000800000000793000087D30000869
:10004000870200088702000887020008870200086C
:10005000870200088702000887020008870200085C
:10006000870200088702000887020008870200084C
:10007000870200088702000887020008870200083C
:1000800087020008870200089D1500088702000803
:10009000870200088702000887020008870200081C
:1000A000870200088702000887020008870200080C
:1000B000870200082D310008870200088702000827
:1000C00087020008870200088702000887020008EC
:1000D00087020008870200088702000887020008DC
:1000E00087020008870200088702000887020008CC
:1000F00087020008870200088702000887020008BC
:1001000087020008870200088702000887020008AB
:10011000870200088702000887020008870200089B
:10012000870200088702000887020008870200088B
:10013000870200088702000887020008870200087B
:10014000870200088702000887020008870200086B
:10015000870200088702000887020008870200085B
:10016000870200088702000887020008870200084B
:1001700087020008870200088702000800000000CC
:10018000870200088702000887020008870200082B
:10019000870200088702000887020008870200081B
:1001A00087020008870200088702000800F002F8B2
:1001B00000F04CF80AA090E8000C82448344AAF1B5
:1001C0000107DA4501D100F041F8AFF2090EBAE8B3
:1001D0000F0013F0010F18BFFB1A43F0010318477B
:1001E0002835000048350000103A24BF78C878C18F
:1001F000FAD8520724BF30C830C144BF04680C602D
:10020000704700000023002400250026103A28BF74
:1002100078C1FBD8520728BF30C148BF0B60704778
:10022000662903F01D82642900F0C4800020704715
:100230001FB503F010FA00F057FC04000020002165
:1002400003F07CF9E0601FBD10B510BD00F068FD43
:100250001146FFF7EDFF03F005F900F086FD03B44A
:10026000FFF7F2FF03BC00F0C9FD0000094880471A
:1002700009480047FEE7FEE7FEE7FEE7FEE7FEE788
:10028000FEE7FEE7FEE7FEE704480549054A064BA0
:10029000704700001D310008AD010008D0010020AA
:1002A000D0070020D0030020D003002053EA020C26
:1002B00000F069802DE9F04B4FF00006002B1FBFC6
:1002C000B3FA83F503FA05F424FA05F65E4012BF8B
:1002D0001643B2FA82F502FA05F4C5F120051EBFF5
:1002E00022FA05FC44EA0C04203556EA044C4FEA95
:1002F000144418BF641C4FF000084FF000099042EE
:1003000071EB030C39D3002919BFB1FA81F701FA57
:1003100007F6B0FA80F700FA07F6C7F120071EBF0C
:1003200020FA07FC46EA0C062037B6FBF4FCA7EBE4
:100330000507103F07F01F0BCBF120060CFA0BFB53
:100340002CFA06F644BFB3460026202FA4BF5E4613
:100350004FF0000B5BEA060C08BF4FF0010B19EBE6
:100360000B09ABFB027C48EB0608C01B06FB02CC6A
:100370000BFB03CC71EB0C01C1E70B460246414677
:100380004846BDE8F08B13B54FF000004FF0000178
:10039000AFF30080BDE81C40704700000FB4044973
:1003A00010B503AA029800F08DFB10BC5DF814FB99
:1003B000000000202DE9F041064600241068752950
:1003C000314616A510D0AFF30080002802DA404273
:1003D00013A507E031688A0701D512A502E0490795
:1003E00004D511A5012401E0AFF3008000210A2209
:1003F00006F1240709E0B0FBF2FCB0FBF2F302FBCC
:100400001C00303078541846491C0028F3D123468C
:100410002A463046BDE8F04100F0EBB8000000008D
:100420002D0000002B000000200000002DE9F04707
:100430004FF0000A89460446C0F820A02046E16833
:100440008847002876D0252806D0D4E90121904796
:10045000206A401C2062F1E7E168204600258847B9
:10046000C4F81CA006460027C4F818A02A2E09D0FC
:10047000304602F027FF38B304EB8708303EC8F857
:10048000186019E059F8041B204604EB87029161BB
:10049000E1688847012F064618D1E069002820DA74
:1004A00025F020051DE0D8F8180000EB800006EBD1
:1004B00040003038C8F818002046E16888470646F2
:1004C00002F000FF0028EED1012F0AD02E2E08D115
:1004D0002046E16888477F1C0646022F45F020052C
:1004E000C4DBA069002803DA404245F00105A061A1
:1004F000E80701D025F01005B6B1A6F14100192892
:1005000002D8203645F400654A463146204625602B
:100510004D46FFF785FE58B1012806D0ED1D25F0A8
:10052000070000F1080989E704E005F1040985E7FF
:1005300030468AE7206ABDE8F08710B5203AC0F05F
:100540000B80B1E81850203AA0E81850B1E81850D4
:10055000A0E81850BFF4F5AF5FEA027C24BFB1E811
:100560001850A0E8185044BF18C918C0BDE8104082
:100570005FEA827C24BF51F8043B40F8043B08BF8B
:100580007047D20728BF31F8023B48BF11F8012B52
:1005900028BF20F8023B48BF00F8012B70474FF0FE
:1005A000000200B5134694469646203922BFA0E8C3
:1005B0000C50A0E80C50B1F12001BFF4F7AF0907CF
:1005C00028BFA0E80C5048BF0CC05DF804EB8900C0
:1005D00028BF40F8042B08BF704748BF20F8022B03
:1005E00011F0804F18BF00F8012B7047704770471B
:1005F00070472DE9F0470D4699469246044600F1B2
:1006000024080168880604D5E06921F01001216002
:1006100000E00120A84201DD471B00E00027A1699E
:100620007A1902EB0900081AA0612078C00602D4EA
:100630002046AFF30080002608E0D4E901211AF833
:1006400006009047206A401C761C20624E45F4DB71
:100650002078C0060AD52046AFF3008006E0D4E932
:10066000012130209047206A401C2062381EA7F1EB
:100670000107F4DC07E0D4E9012118F805009047F0
:10068000206A401C2062281EA5F10105F3DC2046EB
:10069000AFF300802078000602D50220BDE8F08785
:1006A0000120FBE770472DE9FF4F0C461E464FF037
:1006B000FF378BB0D2E90001DDF860800A908A46EE
:1006C000C1F30A5505B93D46002108464FF0000028
:1006D000BAF1000F00F4400005DA00EB80004FF49F
:1006E000400101EA50004FEA9059B9F1010F00DDD5
:1006F000B9460A9850EA4A000ED044F61050A5F2C6
:10070000FF3545432F14B8F1000F1ED07542291E46
:100710001EDDC9F100021CE0B8F1010F4FF000002E
:1007200001D0302103E0F24305E02154401CB042E7
:10073000FBDB30460022002121540B99C1F80880D0
:10074000C1E900200FB0BDE8F08FBD1B6D1CDEE7D6
:100750004A4600DA694206A800F068FA06AB93E858
:10076000070003AB83E8070050460A9900F04DFBF1
:100770008DE80700A0F500501F3800900398002D69
:100780000ADD42F21F014A460844002303A90390F0
:10079000684600F0B6FD09E0A0F500504A461F3853
:1007A000002303A90390684600F0C0FD8DE8070010
:1007B0000004000C03D04FF0FF30410800E0104669
:1007C000B8F1000F03D00022009215461EE0751EFE
:1007D00005D400F08DF9303262556D1EF9D5B3465F
:1007E0000122084302D000227F1C04E02078302838
:1007F00001D100227F1E002A099784D01DE0112D0F
:1008000007DA00F075F9303262556D1C50EA0102CA
:10081000F5D1084302D00098C8B10EE00021681E4F
:1008200005E0235C625C63542254401E491C8142F3
:10083000F7DBAB46A81B401E0990002004F80B0014
:100840000B98099AC0F80880C0E9002B7AE71126B6
:100850004FF0000857E72DE9F04F88460446D21DB7
:1008600022F0070191B0D1E90001CDE90A0102F0BF
:1008700001FD02460B98C00F01D02D2007E0206833
:10088000810701D52B2002E0202101EAC000032AC4
:10089000099001D0072A05DB03464146204600F0B7
:1008A00085F90BE12078800601D5E06900E006209B
:1008B000B8F1650F814606D0B8F1660F18D0B8F1CF
:1008C000670F70D131E00020B9F1110F009001DB0A
:1008D000112301E009F101030AAA01A90CA8FFF7FD
:1008E000E2FEDDE90C70002609F10105834647E0D0
:1008F00001204B4600904FF000470AAA01A90CA81E
:10090000FFF7D1FEDDE90DB00C995D46002610B968
:1009100009F101000D18B9EB050003D4C0F1FF3651
:1009200009F10105A5EB09002BE0B9F1010F01DA8E
:100930004FF001090020B9F1110F0090484601DD88
:10094000112300E003460AAA01A90CA8FFF7ABFE99
:10095000DDE90C704D4600268346207800070AD456
:10096000AB4500DA5D4601A8012D04DD411911F8FF
:10097000011C302907D04F4502DA17F1040F04DAC1
:10098000012082460FE06D1EEEE7002F02DCED1B1A
:100990003E4403E0781CA84200DD7D1CB81B00F13A
:1009A000010A4FF000472078000703D4AA4501DB75
:1009B0004FF0FF3A0021B7F1004F0DF143088DF8D9
:1009C000431024D002202B23002F01DA7F422D2355
:1009D0000A21021EA0F1010000DC5FB197FBF1FCCF
:1009E00097FBF1F201FB1C7C17460CF1300C08F868
:1009F00001CDEEE7A8F1010003702188090501D5BA
:100A0000452100E06521A0F1010800F8011C0998CA
:100A10000FA9A1EB0807FF1D00B10120411901EB4F
:100A2000EA70A1693844081A401EA0612078C00607
:100A300002D42046AFF30080099828B1D4E90121FF
:100A40009047206A401C20622078C00622D52046AC
:100A5000AFF300801EE0002E04DBB34502DD01A8E9
:100A6000805D00E03020D4E901219047206A401CDD
:100A70002062761CAAF101005FEA000A0AD100F0A8
:100A800033F8C0680168405CD4E901219047206ACE
:100A9000401C2062281EA5F10105DCDC07E0D4E93A
:100AA000012118F8010B9047206A401C2062381E73
:100AB000A7F10107F3DC2046AFF30080032011B05B
:100AC00041E60000074B70B50D467B4400F05BF833
:100AD0000446284600F01CF910B14FF0FF3070BDFD
:100AE000204670BD8B280000004870478C01002014
:100AF00030B5B0F10A024FEA900E71F100034EEAF0
:100B0000817EB0EB0E0061EB91014FEA101E4EEAC0
:100B1000017E10EB0E0041EB11114FEA102E4EEA50
:100B2000016E10EB0E0041EB11214FEA104E4EEA20
:100B3000014E10EB0E0041EB1141401841F1000154
:100B40004FEAD00040EA41704FEAD10110EB800536
:100B50004FEA810444EA907444EB01046D1944EBBC
:100B60000404521BA3414FF0000348BF0A3200D5D2
:100B700030BD401C41F1000130BD000001694A1C3C
:100B800002610878704700B58FB0CDE901310021CE
:100B9000059105497944CDE9031011466846FFF7F0
:100BA00045FC0FB000BD0000E5FFFFFF2DE9F0415F
:100BB0001F46044603260168072A01F4006004DB8F
:100BC00008B116A505E016A503E008B115A500E0DB
:100BD00015A521F010002060A069C01EA0610FB112
:100BE000401EA0612046AFF300804FB1D4E901213F
:100BF00038469047206A401C2062C01C206206E0F4
:100C0000206AFAE7D4E9012115F8010B9047761E16
:100C1000F8D22046AFF30080BDE8F0814E414E008F
:100C20006E616E00494E4600696E66002DE9F04720
:100C3000814616468AB0354878440DC88DE80D00C7
:100C400032487844801C03AC0DC884E80D0041F69E
:100C50009B300844372190FBF1F290FBF1F5A5F1B0
:100C6000800501FB12041B3C02D56442012000E018
:100C70000020DFF898A080460027FA44AAF1BE0AB7
:100C80000EE0E0070AD03246684607EB4701012331
:100C90000AEB810100F04AFB8DE8070064107F1C1D
:100CA000002CEED1194F7F44AE3F19E0E80715D074
:100CB00007EB04100DF1180A90E80E008AE80E0008
:100CC000C068F04201D1981908903246012306A964
:100CD00003A800F02BFB03AB83E807006D10641C36
:100CE000002DE3D14FF0010332466946B8F1000F01
:100CF00003A802D000F005FB01E000F017FBC9E9F2
:100D00000001C9F808200AB0BDE8F087B42A000045
:100D1000007B00F080007047004870476C010020A5
:100D20007546FFF7F9FFAE4605006946534620F0C9
:100D30000700854618B020B5FFF7A6FABDE82040A9
:100D40004FF000064FF000074FF000084FF0000B87
:100D500021F00701AC46ACE8C009ACE8C009ACE83A
:100D6000C009ACE8C0098D46704710B50446AFF322
:100D700000802046BDE81040FFF771BA4FF0013CFB
:100D800050F8042B51F8043B9A4221D1A2EB0C03FA
:100D9000934313EACC1317D150F8042B51F8043BBA
:100DA0009A4215D1A2EB0C03934313EACC130BD157
:100DB00050F8042B51F8043B9A4209D1A2EB0C03E2
:100DC000934313EACC13DBD04FF00000704700BF11
:100DD000D01A01BAB1FA81F101F0180122FA01F03A
:100DE000CB40C1F12001DBB2C0B2C01A2CFA01F332
:100DF000D11A914311EAC311E6D170470149182075
:100E0000ABBEFEE72600020070475FEA400C08BF59
:100E100091F0000F4FEA8C234FEAC12243EA51516F
:100E20004FEA1C5018BF00F5F0404FEA300018BFE1
:100E300041F000415FEA6C5C00F02980BCF1FF3FAB
:100E400008BF40F080407047130C06BF12044FF0FB
:100E5000100C4FF0000C130E04BF12020CF1080C22
:100E6000130F04BF12010CF1040C930F04BF920086
:100E70000CF1020CD30F04BF52000CF1010C11460F
:100E80004FF00002A0F11F00A0EB0C00704711F022
:100E9000004F08BF704731F000413FF4D5AF0B0C55
:100EA00006BF09044FF0100C4FF0000C0B0E04BFEE
:100EB00009020CF1080C0B0F04BF09010CF1040C22
:100EC0008B0F04BF89000CF1020CCB0F04BF49004B
:100ED0000CF1010CCCF12003A0EB0C0022FA03F37F
:100EE00002FA0CF241EA030100F10100704720F020
:100EF0007F4C80EA030023F07F47ACEB070303F548
:100F00007C5300F0004003F1FF032DE980494FEAD4
:100F1000154B09B44FEA144325EA0B4E24EA034863
:100F20000FF2042606EB132749083E785FEA3202E7
:100F300003FB0667C7F5000707FB06F64FEA5437C1
:100F40004FEAD64606F1020607FB066CCCF1005CC0
:100F50004FEA1C472CEA074C07FB06F40CFB06F58E
:100F600004EB15464FEA961634BF00204FF00040C0
:100F70004FEAD13706FB07FC4FEA1C4C0CFB0BF782
:100F8000D21B03FB0CF761EB07010CFB0EF7B0EB78
:100F9000074072EB17420CFB08F734BFA2EB074285
:100FA000B2EB074261EB17414FEA0C444FEA91075D
:100FB00006FB07FC4FEA1C4C0CFB0BF7B0EBC740E1
:100FC00072EB573203FB0CF734BFA2EBC742B2EB14
:100FD000C74261EB57310CFB0EF7B0EBC70072EB69
:100FE00057720CFB08F734BFA2EBC702B2EBC70283
:100FF00061EB5771039F4FEA816141EA921104EB63
:10100000CC044FEAD1374FEA826206FB07FC42EA82
:1010100090124FEA80604FEA1C4C0CFB0BF7D21B7E
:1010200003FB0CF761EB07010CFB0EF7B0EB07407D
:1010300072EB17420CFB08F734BFA2EB0742B2EB8E
:10104000074261EB17414FEA8C554FEA910704EBD9
:101050009C2406FB07FC4FEA1C4C0CFB0BF7B0EB87
:10106000C74072EB573203FB0CF734BFA2EBC74209
:10107000B2EBC74261EB57310CFB0EF7B0EBC70088
:1010800072EB57720CFB08F734BFA2EBC702B2EB4E
:10109000C70261EB577115EB4C254FEA816141EABC
:1010A00092114FEA82624FEAD13742EA901206FB70
:1010B00007FC44F100044FEA80604FEA1C4C0CFB33
:1010C0000BF7D21B03FB0CF761EB07010CFB0EF7D0
:1010D000B0EB074072EB17420CFB08F734BFA2EBF2
:1010E0000742B2EB074261EB174115EB1C154FEAC3
:1010F000813141EA92414FEA823242EA90424FEA1C
:1011000080304FEA0C7644F1000448EA03434EEA8B
:101110000B484FF0000EB2EB080C71EB030724BF35
:10112000624639464EEB0E0E4FF0000B001852414E
:1011300049414BEB0B0BB2EB080C71EB03077BF156
:10114000000B24BF624639464EEB0E0E4FF0000BEB
:101150000018524149414BEB0B0BB2EB080C71EB01
:1011600003077BF1000B24BF624639464EEB0E0E9F
:1011700051EA020718BF46F0010616EB0E7655F14C
:10118000000254F1000103D5BDE88901BDE80088E3
:10119000BDE88901BDE80048B619524141EB0101A3
:1011A000A3F10103704780807F7E7D7C7B7A797814
:1011B000777676757473727171706F6E6E6D6C6C1C
:1011C0006B6A6A69686867666665646463636261BE
:1011D0006160605F5F5E5E5D5D5C5C5B5B5A5A593F
:1011E00059585857575656555555545453535252AB
:1011F0005251515050504F4F4F4E4E4D4D4D4C4C03
:101200004C4B4B4B4A4A4A4949494848484747474B
:101210004746464645454544444444434343434288
:10122000424242414141002B9C4630D477002BD0B2
:101230001CB54FEA370703B44FF010004FF0100110
:10124000BAF1000F06D0BCF1000FDCBF40F008007F
:1012500040F008014FF000000FBCBDE810400BF15A
:10126000010BBBF1010F08BF5FEA170722BF12F1A4
:10127000010211F101014FF0004143F1000300F0C0
:10128000004043EA00007047F9D35708D0E746EA28
:10129000064613F1400F4FEA16461FDD13F1200FEB
:1012A000DFBF16430A46002120335B42BED0C3F1A4
:1012B000200746EA064602FA07F74FEA164646EACC
:1012C0000706C3F1200722FA03F201FA07F721FA11
:1012D00003F14FF0000342EA0702A7E746EA0206DD
:1012E00046EA06464FEA164646EA0106BCBF46EA0B
:1012F0000646360C4FF000034FF000024FF000019D
:1013000094E72DE9804C9A46934670B491E83800F2
:1013100007C831EA400C48BF34EA430C03D5FFF755
:10132000E6FDFFF780FFF0BCBDE8008C2DE9804CA6
:101330009A46934670B491E8380007C810F0804F81
:1013400008BF13F0804F03D100F005F8FFF76BFFE3
:10135000F0BCBDE8008C20F07F4780EA030023F05A
:101360007F4C07EB0C03A3F57C5300F00040A3F186
:10137000FE0392F0000F00F0B38095F0000F00F034
:1013800077802DE901494FEA11404FEA144621EADE
:10139000004800FB06FC24EA064708FB06F607FBAC
:1013A00008F800FB07F718EB06484CEB164C4FEA21
:1013B000124B18EB07484FEA15464CEB174022EA50
:1013C0000B4E0BFB06FC25EA06470EFB06F607FB59
:1013D0000EFE0BFB07F71EEB064E4CEB164C4FF0C8
:1013E00000061EEB074E4CEB174B18EB0B0840F1B9
:1013F000000018EB0E0B58EB000840F100008F1AAC
:101400004FF000013CBFC943661B14BFB5EB040C91
:1014100000213CBFC943F61B4FEA17444EEA8E0E2B
:1014200027EA04454FEA1C4704FB07622CEA074CF5
:1014300005FB07F70CFB05F604FB0CFC16EB074657
:1014400042EB174216EB0C4642EB1C421BEB060626
:1014500058EB0202414146EA9E0601D5BDE80189EA
:10146000B619524141EB0101A3F10103BDE8018925
:101470004FEA14454FEA114724EA054621EA074C92
:1014800005FB07F406FB07F70CFB06F105FB0CFC5C
:1014900011EB074144EB17444FEA124711EB0C41A3
:1014A00044EB1C4422EA074C05FB07F206FB07F756
:1014B0000CFB06F605FB0CFC16EB074642EB17424D
:1014C00016EB0C4642EB1C456A1854F1000148BF6C
:1014D0007047B619524141EB0101A3F10103704776
:1014E00095F0000F37D04FEA11424FEA144721EA36
:1014F000024624EA074C02FB07F106FB07F70CFB48
:1015000006F402FB0CFC14EB074441EB17414FEAD5
:10151000154714EB0C4441EB1C4125EA074C02FB38
:1015200007F506FB07F70CFB06F602FB0CFC16EBB7
:10153000074645EB174516EB0C4645EB1C421219C6
:1015400051F1000148BF7047B619524141EB01010A
:10155000A3F1010370474FEA14454FEA114724EA0B
:10156000054621EA074C05FB07F106FB07F70CFBD4
:1015700006F24FF0000605FB0CFC12EB074241EBB4
:10158000174112EB0C4251EB1C4148BF70479218B7
:1015900041EB0101A3F1010370470000014800F095
:1015A00055B9000028000020464910B54A6822F4C9
:1015B00040324A604A6843681A434A6001684A6890
:1015C00022F480724A6001684A68036942EA032291
:1015D0004A6001684A6822F040724A6001684A68BD
:1015E00083681A434A6001688A6822F400628A604C
:1015F00001688A68C3681A438A60816A6FF0706202
:10160000D14201688A6822F070628A6001688A6843
:101610000CD0836A1A438A6001688A6822F04052BB
:101620008A6001688A68C36A1A4301E022F0405266
:101630008A6001688A6822F002028A6001688A680A
:10164000037E42EA43028A6090F820100029016874
:101650004A680FD042F400624A6001684A6822F486
:1016600060424A6001684A68174C436A04EB43339E
:101670001A4301E022F400624A600168CA6A22F457
:101680007002CA620168CA6A838B104C04EB035370
:101690001A43CA6201688A6822F400728A6001688B
:1016A0008A6890F8303042EA43228A6001688A688A
:1016B00022F480628A6001688A68406942EA802078
:1016C000886010BD0023014000E0FFFF0000F0FF34
:1016D000FEE7704772B6FEE77047000078B5002459
:1016E000009490F83C20012A19D0012280F83C2077
:1016F0000A6807230568092A13D9EE680A3A02EB3B
:10170000420293409E43EE600B788A680A3B03EBEB
:1017100043039A400368DD682A43DA6010E0022040
:1017200078BD2E6902EB420293409E432E610B78F6
:101730008A6803EB43039A4003681D692A431A61D0
:101740004A681F23072A13D205686E6B521E02EBEC
:10175000820293409E436E630A8893B20A79521EB6
:1017600002EB820293400268556B2B43536327E0E0
:1017700005680D2A12D22E6BD21F02EB8202934013
:101780009E432E630B790A88DB1F92B203EB83031F
:101790009A4003681D6B2A431A6311E0EE6A0D3A02
:1017A00002EB820293409E43EE620B790A880D3B66
:1017B00092B203EB83039A400368DD6A2A43DA623C
:1017C0001B4B0568194A9D420AD10D68122D07D19D
:1017D000556825F400055560556845F48005556049
:1017E00005689D421DD1134D0B68AB4201D0112BF2
:1017F00017D1536823F480035360536843F4000304
:1018000053600968A9420CD10B490C4A0968B1FB25
:10181000F2F101EB8101490000E0491E009100292D
:10182000FBD180F83C40002078BD0000002301403F
:1018300000200140120000102400002040420F0050
:1018400001F04EBE70470068C06C704770B504462A
:1018500000680668456816F0020F05F020012AD0DE
:1018600049B3216CC90603D4216C41F40071216491
:10187000816811F0405F17D1217EA9B9C16A11F4C6
:10188000700F02D0816849050ED4416821F0200113
:101890004160206C20F480702064206CC00403D46C
:1018A000206C40F0010020642046FFF7C9FF21684A
:1018B0006FF01200086016F0040F05F0800132D0BE
:1018C00089B3206CC00603D4206C40F4005020641F
:1018D0002068816811F4401F1ED1816B11F4401FF4
:1018E00002D08168490517D44168490514D481683C
:1018F00011F0405F10D1217E71B9416821F0800163
:101900004160206C20F480502064206CC00503D41A
:10191000206C40F0010020642046FFF7DDFE2168C6
:101920006FF00C00086016F0010F05F040010FD0B9
:1019300071B120680068C0070AD0206C40F4803084
:101940002064204600F043F821686FF00100086031
:1019500016F0200F05F080610ED000290CD0606CCD
:1019600040F00200606420686FF0200505602046AA
:10197000FFF768FF2068056070BD70B504004FF088
:10198000000503D0206C002610B107E0012070BDD7
:10199000204600F01DF8666484F83C60206CC006A8
:1019A00010D4206C20F4885040F0020020642046BF
:1019B000FFF7FAFD6664206C20F0020040F00100A1
:1019C000206400E0012584F83C60284670BD704723
:1019D00008B500680B49884212D10B48016841F4F0
:1019E000807101600068002200F480700090114650
:1019F000122000F097FBBDE80840122000F084BBE5
:101A000008BD0000002001404438024018B5002104
:101A1000009190F83C20012A07D0012280F83C2058
:101A200002689368DB0702D011E0022018BD9368BA
:101A300043F001039360314A314B1268B2FBF3F279
:101A400002EB420200E0521E0092002AFBD1026823
:101A50009368DB0747D0036C40F20164A34343F46F
:101A60008073036453685B0505D5036C23F400534E
:101A700043F480530364036CDB0404D5436C23F00C
:101A80000603436400E0416480F83C101D4B6FF096
:101A90002201116001684A681B4C22434A60596860
:101AA0000068CA06194906D0884224D1816811F01D
:101AB000405F13D01FE08842F8D0154A904203D10E
:101AC000D1F80423D206F1D0124A904213D1D1F8B2
:101AD000041301F01F011029E8D30CE0816841F0E4
:101AE0008041816007E0016C41F010010164416CAC
:101AF00041F001014164002018BD000024000020D5
:101B000040420F000023014020000004002001405B
:101B100000210140002201402DE9F84FDFF8F8A133
:101B20000022012403254FF00F090AF1040BAAF14A
:101B3000040E00BF0B6804FA02F63340B34270D1C2
:101B40000F7907F00307012F01D0022F16D1876804
:101B50004FEA420805FA08FC27EA0C07D1F80CC046
:101B60000CFA08FC4CEA070CC0F808C04768B743F9
:101B70000E79C6F3001696403E4346600E79F64352
:101B8000B6070AD0C7684FEA420C05FA0CF6B7430D
:101B90008E6806FA0CF63E43C6600E7906F0030620
:101BA000022E10D1D60800EB8608D8F8206057071F
:101BB0004FEAD76C09FA0CF7BE430F6907FA0CF726
:101BC0003743C8F8207006684FEA420C05FA0CF754
:101BD000BE430F7907F0030707FA0CF73743076096
:101BE0004E6816F4403F1CD04C4E376847F480478F
:101BF0003760366822F0030706F480460096484EA8
:101C000007EB060CDCF8086897073F0F09FA07F89E
:101C100026EA0806DFF80C81404503D14FF00008A2
:101C200041E072E0DFF80081404502D14FF0010849
:101C300039E0DFF8F880404502D14FF0020832E089
:101C4000DFF8EC80404502D14FF003082BE0DFF8CD
:101C5000E480404502D14FF0040824E0DFF8D8804A
:101C6000404502D14FF005081DE0DFF8D080404527
:101C700002D14FF0060816E0DFF8C480404502D1DB
:101C80004FF007080FE0DFF8BC80404502D14FF06D
:101C9000080808E0DFF8B080404502D14FF009089D
:101CA00001E04FF00A0808FA07F848EA0608CCF8FD
:101CB0000888DAF800605746D1F804C09E435FEA0E
:101CC000CC2C00D51E433E60DBF800605F46D1F8A7
:101CD00004C09E435FEA8C2C00D51E433E60DEF8B4
:101CE00000607746D1F804C09E435FEA8C3C00D583
:101CF0001E433E60084F083F3E68D1F804C09E4333
:101D00005FEACC3C00D51E433E60521C102AFFF413
:101D100011AFBDE8F88F0000083C01404438024094
:101D20000030014000000240000402400008024070
:101D3000000C024000100240001402400018024053
:101D4000001C024000200240002402400AB18161D0
:101D500070470904FBE700000148806870470000F5
:101D60001800002070B5040013D021684CF6CC4058
:101D70000860216845F255500860D4E900014160CF
:101D80002168A0688860FFF7E7FF054641F6010675
:101D90000DE0012070BD00BFFFF7DEFF401BB04229
:101DA00005D92068C068800701D0032070BD206875
:101DB000C0688007F0D121684AF6AA200860002098
:101DC00070BD00684AF6AA2101600020704700003B
:101DD0000248816802781144816070471800002031
:101DE0000B4810B5016841F400710160016841F4CD
:101DF00080610160016841F480710160032000F09E
:101E0000B1F90F2000F006F800F066F9002010BDCF
:101E1000003C024070B50D4D04464FF47A712878AD
:101E2000B1FBF0F00A490968B1FBF0F000F058FD91
:101E300048B9102C07D200222146501E00F072F93A
:101E400000206C6070BD012070BD000018000020F3
:101E5000240000202DE9F041044690F8A000164629
:101E60000F4601281DD0012584F8A050022084F8D7
:101E7000A10006EB860000EBC60004EB80003422D4
:101E80003830FEF75AFB32463946204600F01EFF36
:101E90002068456284F8A150002084F8A000BDE8C5
:101EA000F0810220FBE770B5040004D094F8A10093
:101EB000002510B106E0012070BD84F8A050204636
:101EC00000F050F8022084F8A1002068816921F018
:101ED00070418161D4E901010843D4E9031211433F
:101EE000084321688A6910438861A08AA16941EA90
:101EF000004120688160A08B216A41EA004120688E
:101F0000C160A08CA16A41EA004120680161A08DF6
:101F1000216B41EA00412068416194F83500216855
:101F2000030294F83600CA6A02F07F42CA6221684E
:101F3000CA6A94F8346043EA004032430243CA62FA
:101F40002068416B41F0060141632068816941F0DE
:101F500001018161C4F8A450012084F8A10000208F
:101F600070BD0000F0B593B0044614216846FEF73A
:101F700016FB302105A8FEF712FB4F492068884266
:101F80007ED108200590002464200E94022509903B
:101F90000B9505A800F0F8F808B1FFF79BFB474840
:101FA000016841F080610160006800F0806011907C
:101FB00042481438016841F020010160016801F0D5
:101FC00020011191016841F001010160016801F0F7
:101FD00001011191016841F002010160016801F005
:101FE00002011191016841F010010160016801F0E6
:101FF00010011191016841F008010160016801F0D0
:1020000008011191016841F00401016000680E2689
:1020100000F0040011904FF480600090CDE901546D
:10202000CDE9034669462648FFF776FD41F658009C
:102030000090CDE90154CDE9034669462148FFF7F8
:102040006BFD03200090CDE901540920CDE9034048
:102050001D4F69463846FFF75FFD4FF4584000902A
:10206000CDE90154CDE9034669461848FFF754FD10
:102070004FF470600090CDE901546946384600E0A5
:1020800018E0CDE90346FFF747FD4FF4816000906B
:10209000CDE90154CDE9034669460D48FFF73CFD03
:1020A000C0200090CDE90154CDE9034669460948B6
:1020B000FFF732FD13B0F0BD006801404438024024
:1020C00000140240000002400004024000100240E0
:1020D000000C0240000802400A4808B5016841F4BB
:1020E00080410160006800F4804000900548001FB6
:1020F000016841F080510160006800F0805000905C
:1021000008BD000044380240002809DB00F01F022F
:10211000012191404009800000F1E020C0F8001149
:1021200070470000F0B40E4B1B680C46C3F302234B
:10213000C3F10705042D00D90425191D072901D273
:10214000002300E0DB1E012606FA05F1491E2140AE
:1021500099409E40761E16403143F0BC01F0A2B873
:102160000CED00E0064900F0070208684FF6FF0397
:10217000184040EA0220034A1043086070470000FC
:102180000CED00E00000FA052DE9F84F0446006868
:10219000DFF824A2894F8A4DC1074FF001084FF0A4
:1021A000000603D1810701D4400648D5CAF868600B
:1021B000FFF7D2FD814605E0FFF7CEFDA0EB090059
:1021C00002287DD828680001F6D42078C1077D4810
:1021D00005D06168227A890141EA027101602178A3
:1021E000890711D501686268237B9201C1F30271EE
:1021F00042EA036242EA017101603968E26921F052
:102200001F01521E114339602178490608D56168C3
:10221000227B890141EA0261227A41EA027101606E
:10222000CAF86880FFF798FD814605E0FFF794FD46
:10223000A0EB0900022843D828680001F6D52068E1
:10224000410701D400074ED5CAF87060FFF784FD3E
:10225000814605E0FFF780FDA0EB090002282FD89A
:102260002868C0438000F5D520784107564814D52A
:1022700001682269237D9201C1F3027142EA03627F
:1022800042EA017101603968226A6FF0FF0321F4AC
:10229000F85103EB0222114339602178090712D566
:1022A00001682269C1F30361920142EA0161227E61
:1022B00041EA027101603868616A20F4403000E050
:1022C00051E008433860CAF87080FFF745FD0746C3
:1022D00005E000BFFFF740FDC01B022843D8286877
:1022E000C0438000F6D42078800653D5344840306F
:1022F000016841F0805101600068344D00F0805069
:102300000090286840F480702860FFF725FD07469C
:1023100005E000BFFFF720FDC01B022823D8286876
:10232000C005F7D5274D143D286810F4407020D023
:10233000218D01F4407181421BD0286820F4407146
:102340002348C0F80080066029602868C00710D0C4
:10235000FFF702FD064641F2883707E0FFF7FCFC75
:10236000801BB84202D90320BDE8F88F2868800797
:10237000F4D5A16A1248C1F301220830032A13D010
:10238000016821F4F81101602868218DC1F30B0167
:10239000084328602078C00604D50E4994F82C0024
:1023A000C1F8E0010020DFE702680B4B22F4F812CD
:1023B00019400A430260E7E7000047428C380240B8
:1023C00000380240843802408838024000700040E3
:1023D000400E474200104742FFFCFF0F2DE9F04737
:1023E0000E46050065D0DFF81481D8F80000F7B27A
:1023F00000F00F00B04207D288F80070D8F8000053
:1024000000F00F00B04254D128683D4C810712D52E
:10241000400703D5206840F4E0502060287800078A
:1024200003D5206840F4604020602068A96820F04F
:10243000F000084320602878C0072DD03049686834
:102440000839012812D0022813D0032811D00968B6
:10245000890700292DDA216821F003010143216059
:10246000FFF77AFC814641F2883A0EE00968890359
:10247000EFE709688901ECE7FFF76EFCA0EB0901C3
:10248000514502D90320BDE8F0872068696800F053
:102490000C00B0EB810FEFD1D8F80010404601F0EE
:1024A0000F01B14207D90770006800F00F00B04279
:1024B00001D00120E7E72878400705D52068E968C2
:1024C00020F4E050084320602878000706D52068F3
:1024D000296920F4604040EAC100206000F018F84B
:1024E0002168084AC1F30311515CC84006490860DD
:1024F00006480068FFF78EFC0020C4E7003C02405D
:102500000838024064360008240000201C00002027
:10251000154810B5006810F00C02144813D0144987
:10252000042A0FD0082A0ED10F4C241F22682368DA
:1025300002F03F025B0207D52068C0F38810A0FBC1
:10254000010106E0084610BD2168C1F38811A1FB16
:1025500000010023FDF7AAFE2168C1F30141491CD7
:102560004900B0FBF1F010BD083802400024F4002F
:1025700040787D012DE9F84F04006ED02078DFF817
:102580004C93C007A9F104054AD009F10400016881
:10259000C1F38101012908D00068C0F3810002283D
:1025A0000AD1D9F80000400206D52868800337D543
:1025B00060680028E1D033E06068B0F5803F10D05B
:1025C000B0F5A02F286810D020F48030286028684B
:1025D00020F4802028606068A8B1FFF7BDFB0646A4
:1025E0000DE0286840F48030F4E740F48020286053
:1025F000F7E700BFFFF7B0FB801B642873D828689B
:102600008003F7D50CE0FFF7A7FB064605E000BF07
:10261000FFF7A2FB801B6428F0D828688003F7D45A
:102620002078DFF8AC8280074FF0000A3ED5A7483B
:10263000001D016811F00C0F08D00068C0F3810084
:1026400002280BD1D9F80000400207D4286880077F
:1026500016D5E068012800D112E033E1E068B8B196
:102660000120C8F80000FFF777FB064605E000BF31
:10267000FFF772FB801B0228C0D828688007F7D5B7
:102680002868216920F0F80040EAC10028600DE0C8
:10269000C8F800A0FFF760FB064604E0FFF75CFB0C
:1026A000801B02281FD828688007F7D420780007ED
:1026B00022D5864F87486169703771B10121016069
:1026C000FFF74AFB064604E0FFF746FB801B0228A3
:1026D00009D838688007F7D50EE0C0F800A0FFF7EA
:1026E0003BFB064605E082E0FFF736FB801B022835
:1026F0007DD838688007F7D42078400768D5DFF8A0
:10270000CCB100270BF13C0BDBF80000C0000BD470
:10271000DBF8001041F08051CBF80010DBF800002E
:10272000012700F0805000906B4E3068C00510D437
:10273000306840F480703060FFF70EFB009005E0D9
:10274000FFF70AFB0099401A022850D83068C005EC
:10275000F6D55E4EA0686C3601280FD0052830688B
:1027600010D020F001003060306820F004003060AC
:10277000A068B8B1FFF7F0FA00900FE0306840F0C1
:102780000100F4E740F004003060F7E7FFF7E4FAF7
:102790000099411A41F28830814266D8306880073A
:1027A000F4D50EE0FFF7D8FA009007E0FFF7D4FA6F
:1027B0000099411A41F28830814256D8306880072A
:1027C000F4D42FB1DBF8001021F08051CBF80010C9
:1027D000A069C8B33D49091D0968C1F381010229F7
:1027E0004AD00228504607D0C8F8600000E03CE01C
:1027F000FFF7B2FA04463BE04746C8F86000FFF72F
:10280000ABFA064605E000BFFFF7A6FA801B0228D8
:102810002BD828688001F7D4D4E907010843A16ABE
:102820002E4A490802EB0141626A41EA82110843DB
:1028300094F82C1040EA0161C9F8001001203866B4
:10284000FFF78AFA044606E03EE000BFFFF784FA8D
:10285000001B022809D828688001F7D534E000BFA2
:10286000FFF77AFA001B022802D90320BDE8F88F8F
:1028700028688001F4D427E00128F7D0D9F80000B7
:10288000E26900F4800191421CD1226A00F03F010C
:10289000914217D147F6C071626A0140B1EB821FC5
:1028A00010D1A26A4FF0FF3300F4403103EB520223
:1028B000B1EB024F06D194F82C1000F07060B0EB31
:1028C000016F01D00120D1E70020CFE7043802409A
:1028D00000004742800E4742007000400000FFFFAA
:1028E00010B5401EB0F1807F01D3012010BD4FF024
:1028F000E02460610F21601700F0D4FC0020A0618B
:1029000007202061002010BD7047704770B590F817
:102910003C20012A32D0012480F83C40022280F879
:102920003D2003685A689D6822F070060A683243A9
:102930005A60134B02689A4214D0B2F1804F11D002
:10294000104B9A420ED0104B9A420BD00F4B9A422A
:1029500008D00F4B9A4205D00E4B9A4202D00E4B34
:102960009A4204D1496825F080031943916080F8A8
:102970003D40002180F83C10084670BD022070BD2B
:10298000000001400004004000080040000C00402E
:1029900000040140004001400018004010B5040050
:1029A00003D094F83D0010B107E0012010BD0020D5
:1029B00084F83C00204600F01FF8022084F83D0017
:1029C000211D206800F0B8FB012084F8460084F83F
:1029D0003E0084F83F0084F8400084F8410084F809
:1029E000420084F8430084F8440084F8450084F8E9
:1029F0003D00002010BD000008B500680B4988426A
:102A000012D10B48016841F0020101600068002208
:102A100000F00200009011461D20FFF783FBBDE887
:102A200008401D20FFF770BB08BD000000040040F7
:102A30004038024090F83D10012901D00120704734
:102A4000022180F83D100168CA6842F00102CA60A4
:102A500000681149884214D0B0F1804F11D00F495D
:102A600088420ED00E4988420BD00E49884208D0C9
:102A70000D49884205D00D49884202D00C49884250
:102A800004D1816801F00701062903D0016841F0F3
:102A90000101016000207047000001400004004077
:102AA00000080040000C00400004014000400140CC
:102AB0000018004070B5044690F83C00002501283D
:102AC00017D0012684F83C60022084F83D0020687D
:102AD000826822F0770222F47F42826008685028E0
:102AE00038D00DDC20284FD005DC90B3102811D150
:102AF0004AE0022070BD302846D040280AD13BE091
:102B000060282FD070280DD0B0F5805F03D0B0F5CD
:102B1000005F12D0012584F83D60002084F83C005D
:102B2000284670BDCB68D1E90121206800F06CFB1C
:102B30002068816841F0770109E0CB68D1E9012183
:102B4000206800F061FB2068816841F48041816069
:102B5000E1E719E0CA684968206800F067FB502186
:102B6000206806E0CA684968206800F070FB6021B0
:102B7000206800F053FBCEE7CA684968206800F07F
:102B800055FB40212068F4E7226801461046F0E733
:102B900070472DE9F04104460068C66805694FF0AA
:102BA0000007A90713D5B10711D5F91E016101204E
:102BB0002077206880698007204602D0FFF7E8FF71
:102BC00004E000F07EF8204600F07CF827776807E4
:102BD00016D5700714D521686FF004000861022033
:102BE00020772068806910F4407F204602D0FFF7EC
:102BF000CFFF04E000F065F8204600F063F8277787
:102C0000280715D5300713D521686FF00800086133
:102C1000042020772068C0698007204602D0FFF793
:102C2000B7FF04E000F04DF8204600F04BF827779E
:102C3000E80616D5F00614D521686FF0100008617B
:102C4000082020772068C06910F4407F204602D019
:102C5000FFF79EFF04E000F034F8204600F032F861
:102C60002777E80708D0F00706D021686FF0010049
:102C70000861204600F027F8280608D5300606D55A
:102C800021686FF0800008612046FFF73DFE68066E
:102C900008D5700606D521686FF04000086120460F
:102CA00000F012F8A8060AD5B00608D521686FF022
:102CB000200008612046BDE8F041FFF726BEBDE8D0
:102CC000F0817047704770477047FEE7F0B50368C2
:102CD0008C88DD68C5F30B452C442504882404EB5F
:102CE000C2141E5906F470461E5103680F68DE6850
:102CF000C6F30B46761C3E442E431E5103688C8956
:102D0000DD68C5F30A052C4425048C2404EBC214A9
:102D10001E5906F470461E5103688F68DE68C6F3BC
:102D20000A06761C3E442E431E519423046803EB8E
:102D3000C213E55825F00705E55005680C69EC500D
:102D400091F831300C7E1E0291F8323091F83050FB
:102D50001B04354343EA04631D439C24036804EBCE
:102D6000C2141D519823046803EBC213E55825F0E3
:102D7000FF05E55005684C69EC50A023046803EB9F
:102D8000C213E55840F20776B543E550D1E907454F
:102D90002C430568EC50AC25046805EBC2154B6A62
:102DA00063510B698BB3012B32D0042B32D0022B31
:102DB00030D0032B2ED0072B2CD00123B024056854
:102DC00004EBC2142E5906F0E0262E51D1E900651D
:102DD000AD1B0E8D5D435E43ED1C45EA0643056861
:102DE0002B51B423046803EBC213E5586FF30A05B3
:102DF000E5500468C96AE1500068842101EBC21102
:102E0000425842F001024250F0BDFFE70423D5E7EB
:102E10000323D3E70223D1E71FB500211648009111
:102E200001910291134A0391C0E90021816001617F
:102E3000017680F820104FF08052C26201245210B7
:102E4000C4618262C16080F830104461FEF795FD74
:102E500008B172B6FEE70948CDE9000407200290E8
:102E600069460548FEF73AFC002801D072B6FEE735
:102E70001FBD0000002001402800002012000010AB
:102E800070B586B014216846FDF789FB26480024FA
:102E9000016841F020010160016801F02001059105
:102EA000016841F001010160016801F00101059133
:102EB000016841F002010160016801F00201059121
:102EC000016841F010010160016801F010010591F5
:102ED000016841F008010160016801F008010591F5
:102EE000016841F004010160016801F004010591ED
:102EF000016841F04001016000680C4E00F04000A4
:102F00004FF480450590002229463046FEF71EFF0B
:102F100001200095CDE90104694630460394FEF78F
:102F2000FBFD06B070BD00003038024000180240C2
:102F300070B59AB034216846FDF731FB34210DA8F5
:102F4000FDF72DFB30482F490024C0E900148460B0
:102F50000721C460C0E90441032181610E210525D8
:102F6000C0E9071540F28E21416240F2E51181620D
:102F70004FF42571C16240F2E711016380F83440DB
:102F800080F8354080F83640FEF78DFF08B172B604
:102F9000FEE7019402944FF48066CDE9064603945F
:102FA00004940094CDE908548DF8304005948DF8D0
:102FB00031400A940B948DF8324000226946124841
:102FC000FEF748FF08B172B6FEE70D940E940F9419
:102FD000109411941294CDE91346CDE915548DF84F
:102FE00064408DF86540179418948DF8664001226E
:102FF0000DA90548FEF72EFF002801D072B6FEE7A6
:103000001AB070BD006801407C00002010B586B089
:1030100000241748009401940294039404941349E3
:10302000059401609F21C0E9011442F20F71C0E9CB
:1030300003148461FFF7B2FC08B172B6FEE74FF4E7
:103040008050009069460A48FFF734FD08B172B617
:10305000FEE72020CDE9040404A90548FFF756FC4B
:10306000002801D072B6FEE706B010BD0004004093
:1030700024010020FEE7FEE770477047FEF7A8BE78
:1030800010B592B030216846FDF789FA14210CA8DA
:10309000FDF785FA1F48016821F03F0141F010015A
:1030A0000160016821F4800101601A4800243C306D
:1030B000016841F080510160006800F0805011907B
:1030C0001548016821F4404141F4804101600068E5
:1030D000102100F4404011900A2000900120CDE919
:1030E0000301CDE9050468460794FFF743FA08B1E8
:1030F00072B6FEE70F20CDE90C040E940F94002168
:103100000CA81094FFF76AF9002801D072B6FEE708
:1031100012B010BD0438024000700040024801683F
:1031200041F470010160704788ED00E00148FFF74D
:1031300030BD000024010020F0B50268274B284D67
:10314000284E294F294C4FF0804C984209D06045B9
:1031500007D0A84205D0B04203D0B84201D0A04267
:1031600004D122F0700E4A6842EA0E0298421BD047
:10317000604519D0A84217D0B04215D0B84213D03C
:10318000A04211D01A4DA8420ED01A4DA8420BD021
:10319000194DA84208D0194DA84205D0184DA84293
:1031A00002D0184DA84203D122F44075CA682A43C0
:1031B0004D6922F080022A438D68C5620D688562E0
:1031C000984201D0A04201D109690163016841F030
:1031D00004010160012141610260F0BD0000014075
:1031E0000004004000080040000C004000040140C2
:1031F00000400140004401400048014000180040E8
:10320000001C00400020004010B5846842EA032200
:1032100024F47F440A432243826010BD826822F076
:1032200070020A4342F007018160704710B5036ADB
:10323000046A24F001040462846924F0F00444EA7E
:10324000021423F00A020A438461026210BD10B521
:10325000036A046A24F010040462846923F0A00362
:1032600024F4704444EA023243EA011182610162AB
:1032700010BDFEE703B401984100009850EAC12058
:1032800018BF04204A0D18BF40F0010040F2FF7241
:10329000B2EB515F08BF40F00200012808BF0520D3
:1032A00002B070470907090E002804DB00F1E02096
:1032B00080F80014704700F00F0000F1E02080F863
:1032C000141D704730380A2801D2012070470020B1
:1032D0007047000010B50E4C0E482246D4ED020A8D
:1032E00012784FF48041B4EEE00AF1EE10FA06DDF8
:1032F000002A0BD10122FEF729FD012005E0002A5A
:1033000004D00022FEF722FD0020207010BD000036
:10331000040000200018024000EE100AF0EE081A27
:103320009FED0C2AB8EE400A9FED081ADFED080A5F
:1033300060EE211A81EE820A30EE410A80EE201AF8
:10334000B3EE090A31EE000A704700005C8F423F7D
:103350000AD7233B00F07F4505490968C90105D517
:103360004FF060410A68002AFCD0087070470000E6
:10337000FCED00E010B50F4C2068800002D50EA0D7
:10338000FDF70CF82068400102D516A0FDF706F8FD
:103390002068000102D51EA0FDF700F82068C000DB
:1033A00002D520A0FCF7FAFF206840F08070206072
:1033B00010BD0000743802405741544348444F4701
:1033C0002052455345543A2048C44E474552204266
:1033D00045492057454E4947204C415354210D0A39
:1033E0000000000052455345542064757263682004
:1033F00065787465726E656E2052657365742D50C4
:10340000696E20284E52535429210D0A00000000F5
:10341000506F7765722D4F6E2D5265736574210D57
:103420000A000000536F6674776172652D526573F0
:103430006574210D0A000000094A61B1D2ED010A4C
:10344000B4EEE00AF1EE10FA01D2012100E0002111
:10345000117011B1704700211170FEF7B2BC00006D
:1034600010000020FEF7BCFC16A0FCF797FFFFF74A
:1034700007FEFFF705FDFFF7CFFCFFF759FDFFF74C
:10348000C5FD1448124901600021416040F6FF71FA
:103490008160FEF767FC08B172B6FEE7FFF76AFFCE
:1034A0000C484838FEF7B2FA0A48B430FFF7C2FABF
:1034B000094C0A4D0748217895ED000AFFF7BCFF3B
:1034C000F8E7000048414C20494E49540A000000EA
:1034D000003000407000002005000020080000209F
:1034E00070B52DED028BFEF7AEF90446FFF714FF21
:1034F0000C4DB0EE408A85ED018AFFF7EBFE01200E
:10350000687018EE100A00F035F841EC100BBDECB5
:10351000028B2146BDE8704053EC102B02A0FCF753
:103520003DBF0000040000204144433A20256420B0
:103530002D3E20252E326620B0430A0010B500290A
:103540000AD00878002807D005487844FDF716FC13
:10355000002801D0002010BD0248784410BD0000B2
:10356000DE010000D60100000808A0F500114FEAB6
:103570003101704743004FEAD30C4FEA3C0C434003
:103580001FBF40070CF1605113F0FE4F70471CF055
:10359000006F03D100200CF0004170470CF0004395
:1035A00043EA507010B540EACC0000F00EF800BFBE
:1035B000000000924FEA0001FFF7D6BF4FF0004134
:1035C0004FF00000A1F5002170470EF1020E2EF021
:1035D000030E5EF8044B244204D44FEA4102B2F1D8
:1035E0007F4F11D84FEA4003B3F17F4F0CD80ED173
:1035F0004FEAD07CB2F17F4F0CEB4C0C0CF1020C7B
:1036000008BF4CEBD17C04E04FF0080C01E04FEA1E
:10361000D17C0CEB4C0324FA03F404F00704B4F15E
:10362000040C06D20EEB840CBDE810404CF0010CEB
:103630006047DFE80CF0070802024FF00040A0F5F9
:10364000800010BD0846420018BFD2F1807288BFCA
:1036500000F0004010BD4FF04070E1EE100A7047DE
:10366000FDF7F9B8000000000000000001020304AB
:103670000607080902400000000000A0000000004A
:1036800005400000000000C8000000000C400000E1
:103690000000409C00000000194000000020BCBE5B
:1036A0000000000034400000BFC91B8E0000000471
:1036B000B5400000504BCFD06607E2CF01000000BC
:1036C0006C4100003E8251AADFEEA73401000000E9
:1036D000D9420000DCB5A0E23A301F97FFFFFFFFA0
:1036E000B4450000FD25A0C8E9A3C14FFFFFFFFFBF
:1036F000FF3F00000000008000000000FF3F0000CE
:103700000000008000000000443700080000002096
:1037100028000000E80100086C370008280000209D
:10372000A8070000040200081C000000430000007D
:10373000F8FFFFFF0C0000000E0000000F0000006B
:103740002E0000000000000000000000000000004B
:103750000000F041000000000000C841010000002E
:0C37600010000000000000000024F40035
:04000005080001AD41
:00000001FF
