:020000040800F2
:10000000C80700204D02000847200008A31C000874
:10001000452000087906000843220008000000007F
:100020000000000000000000000000004B2000085D
:100030007B06000800000000492000084D20000851
:1000400067020008670200086702000867020008EC
:1000500067020008670200086702000867020008DC
:1000600067020008670200086702000867020008CC
:1000700067020008670200086702000867020008BC
:1000800067020008670200084505000867020008CB
:10009000670200086702000867020008670200089C
:1000A000670200086702000867020008670200088C
:1000B00067020008FD2000086702000867020008C8
:1000C000670200086702000867020008670200086C
:1000D000670200086702000867020008670200085C
:1000E000670200086702000867020008670200084C
:1000F000670200086702000867020008670200083C
:10010000670200086702000867020008670200082B
:10011000670200086702000867020008670200081B
:10012000670200086702000867020008670200080B
:1001300067020008670200086702000867020008FB
:1001400067020008670200086702000867020008EB
:1001500067020008670200086702000867020008DB
:1001600067020008670200086702000867020008CB
:10017000670200086702000867020008000000002C
:1001800067020008670200086702000867020008AB
:10019000670200086702000867020008670200089B
:1001A00067020008670200086702000800F002F812
:1001B00000F03CF80AA090E8000C82448344AAF1C5
:1001C0000107DA4501D100F031F8AFF2090EBAE8C3
:1001D0000F0013F0010F18BFFB1A43F0010318477B
:1001E0006822000088220000103A24BF78C878C135
:1001F000FAD8520724BF30C830C144BF04680C602D
:10020000704700000023002400250026103A28BF74
:1002100078C1FBD8520728BF30C148BF0B60704778
:100220001FB502F003F91FBD10B510BD00F03CF979
:100230001146FFF7F5FF02F0B1F800F06EF903B4D4
:10024000FFF7F2FF03BC00F075F900000948804792
:1002500009480047FEE7FEE7FEE7FEE7FEE7FEE7A8
:10026000FEE7FEE7FEE7FEE704480549054A064BC0
:1002700070470000ED200008AD010008C801002013
:10028000C8070020C8030020C803002053EA020C5E
:1002900000F069802DE9F04B4FF00006002B1FBFE6
:1002A000B3FA83F503FA05F424FA05F65E4012BFAB
:1002B0001643B2FA82F502FA05F4C5F120051EBF15
:1002C00022FA05FC44EA0C04203556EA044C4FEAB5
:1002D000144418BF641C4FF000084FF0000990420E
:1002E00071EB030C39D3002919BFB1FA81F701FA78
:1002F00007F6B0FA80F700FA07F6C7F120071EBF2D
:1003000020FA07FC46EA0C062037B6FBF4FCA7EB04
:100310000507103F07F01F0BCBF120060CFA0BFB73
:100320002CFA06F644BFB3460026202FA4BF5E4633
:100330004FF0000B5BEA060C08BF4FF0010B19EB06
:100340000B09ABFB027C48EB0608C01B06FB02CC8A
:100350000BFB03CC71EB0C01C1E70B460246414697
:100360004846BDE8F08B13B54FF000004FF0000198
:10037000AFF30080BDE81C40704700000FB4044993
:1003800010B503AA029800F061F810BC5DF814FBE8
:100390001000002010B5203AC0F00B80B1E81850D2
:1003A000203AA0E81850B1E81850A0E81850BFF45F
:1003B000F5AF5FEA027C24BFB1E81850A0E81850FE
:1003C00044BF18C918C0BDE810405FEA827C24BF52
:1003D00051F8043B40F8043B08BF7047D20728BFE0
:1003E00031F8023B48BF11F8012B28BF20F8023B2F
:1003F00048BF00F8012B70474FF0000200B51346CC
:1004000094469646203922BFA0E80C50A0E80C5034
:10041000B1F12001BFF4F7AF090728BFA0E80C50E5
:1004200048BF0CC05DF804EB890028BF40F8042BDE
:1004300008BF704748BF20F8022B11F0804F18BF4B
:1004400000F8012B7047704770477047074B70B535
:100450000D467B4400F011F80446284600F020F8D1
:1004600010B14FF0FF3070BD204670BD671E000018
:1004700001694A1C02610878704700B58FB0CDE968
:1004800001310021059105497944CDE90310114658
:10049000684600F02EF80FB000BD0000E5FFFFFF3A
:1004A000007B00F080007047754600F03FF8AE46D4
:1004B00005006946534620F00700854618B020B570
:1004C000FFF7D2FEBDE820404FF000064FF00007D6
:1004D0004FF000084FF0000B21F00701AC46ACE8EC
:1004E000C009ACE8C009ACE8C009ACE8C0098D4659
:1004F00070472DE9F04106460024D6E90170F56801
:100500008046304603E04146B847641C3046A84761
:100510000028F8D12046BDE8F08110B50446AFF3BD
:1005200000802046BDE81040FFF789BE00487047B4
:100530006801002001491820ABBEFEE7260002003A
:1005400070470000014800F05FB90000240000205F
:10055000464910B54A6822F440324A604A68436806
:100560001A434A6001684A6822F480724A6001684E
:100570004A68036942EA03224A6001684A6822F035
:1005800040724A6001684A6883681A434A60016899
:100590008A6822F400628A6001688A68C3681A4324
:1005A0008A60816A6FF07062D14201688A6822F0C5
:1005B00070628A6001688A680CD0836A1A438A6014
:1005C00001688A6822F040528A6001688A68C36ABA
:1005D0001A4301E022F040528A6001688A6822F0E2
:1005E00002028A6001688A68037E42EA43028A60E6
:1005F00090F82010002901684A680FD042F4006288
:100600004A6001684A6822F460424A6001684A68A8
:10061000174C436A04EB43331A4301E022F40062AF
:100620004A600168CA6A22F47002CA620168CA6A32
:10063000838B104C04EB03531A43CA6201688A6827
:1006400022F400728A6001688A6890F8303042EAC9
:1006500043228A6001688A6822F480628A600168A5
:100660008A68406942EA8020886010BD002301400A
:1006700000E0FFFF0000F0FFFEE7704772B6FEE704
:100680007047000078B50024009490F83C20012ABF
:1006900019D0012280F83C200A6807230568092A3E
:1006A00013D9EE680A3A02EB420293409E43EE6091
:1006B0000B788A680A3B03EB43039A400368DD68C2
:1006C0002A43DA6010E0022078BD2E6902EB420274
:1006D00093409E432E610B788A6803EB43039A4054
:1006E00003681D692A431A614A681F23072A13D227
:1006F00005686E6B521E02EB820293409E436E634E
:100700000A8893B20A79521E02EB82029340026871
:10071000556B2B43536327E005680D2A12D22E6BCD
:10072000D21F02EB820293409E432E630B790A880C
:10073000DB1F92B203EB83039A4003681D6B2A43CD
:100740001A6311E0EE6A0D3A02EB820293409E4377
:10075000EE620B790A880D3B92B203EB83039A4059
:100760000368DD6A2A43DA621B4B0568194A9D4219
:100770000AD10D68122D07D1556825F40005556082
:10078000556845F48005556005689D421DD1134D9F
:100790000B68AB4201D0112B17D1536823F48003AF
:1007A0005360536843F4000353600968A9420CD1B5
:1007B0000B490C4A0968B1FBF2F101EB81014900D8
:1007C00000E0491E00910029FBD180F83C40002048
:1007D00078BD0000002301400020014012000010FD
:1007E0002000002040420F0010B500F00AF8034836
:1007F000B3EE0F0A80ED030A10BD000000000020D8
:1008000070470068C06C704770B5044600680668A1
:10081000456816F0020F05F020012AD049B3216C7B
:10082000C90603D4216C41F400712164816811F080
:10083000405F17D1217EA9B9C16A11F4700F02D0AF
:10084000816849050ED4416821F020014160206C87
:1008500020F480702064206CC00403D4206C40F02D
:10086000010020642046FFF7BFFF21686FF01200EF
:10087000086016F0040F05F0800132D089B3206CB7
:10088000C00603D4206C40F40050206420688168C6
:1008900011F4401F1ED1816B11F4401F02D08168FA
:1008A000490517D44168490514D4816811F0405FA7
:1008B00010D1217E71B9416821F080014160206C26
:1008C00020F480502064206CC00503D4206C40F0DC
:1008D000010020642046FFF7D3FE21686FF00C0072
:1008E000086016F0010F05F040010FD071B12068CB
:1008F0000068C0070AD0206C40F480302064204695
:1009000000F043F821686FF00100086016F0200F36
:1009100005F080610ED000290CD0606C40F0020020
:10092000606420686FF0200505602046FFF768FFCF
:100930002068056070BD70B504004FF0000503D05D
:10094000206C002610B107E0012070BD204600F0A9
:100950001DF8666484F83C60206CC00610D4206CDE
:1009600020F4885040F0020020642046FFF7F0FD9C
:100970006664206C20F0020040F00100206400E07A
:10098000012584F83C60284670BD704708B50068B2
:100990000B49884212D10B48016841F48071016013
:1009A0000068002200F4807000901146122000F0D0
:1009B00097FBBDE80840122000F084BB08BD000092
:1009C000002001404438024018B50021009190F801
:1009D0003C20012A07D0012280F83C20026893685D
:1009E000DB0702D011E0022018BD936843F0010339
:1009F0009360314A314B1268B2FBF3F202EB4202D0
:100A000000E0521E0092002AFBD102689368DB07C7
:100A100047D0036C40F20164A34343F48073036442
:100A200053685B0505D5036C23F4005343F48053EE
:100A30000364036CDB0404D5436C23F006034364B6
:100A400000E0416480F83C101D4B6FF02201116002
:100A500001684A681B4C22434A6059680068CA060C
:100A6000194906D0884224D1816811F0405F13D023
:100A70001FE08842F8D0154A904203D1D1F80423F0
:100A8000D206F1D0124A904213D1D1F8041301F0EA
:100A90001F011029E8D30CE0816841F0804181609A
:100AA00007E0016C41F010010164416C41F001016B
:100AB0004164002018BD00002000002040420F00CB
:100AC00000230140200000040020014000210140DB
:100AD000002201402DE9F84FDFF8F8A1002201249F
:100AE00003254FF00F090AF1040BAAF1040E00BF11
:100AF0000B6804FA02F63340B34270D10F7907F065
:100B00000307012F01D0022F16D187684FEA420850
:100B100005FA08FC27EA0C07D1F80CC00CFA08FC0F
:100B20004CEA070CC0F808C04768B7430E79C6F313
:100B3000001696403E4346600E79F643B6070AD04B
:100B4000C7684FEA420C05FA0CF6B7438E6806FAFE
:100B50000CF63E43C6600E7906F00306022E10D155
:100B6000D60800EB8608D8F8206057074FEAD76C04
:100B700009FA0CF7BE430F6907FA0CF73743C8F8B8
:100B8000207006684FEA420C05FA0CF7BE430F7955
:100B900007F0030707FA0CF7374307604E6816F4AF
:100BA000403F1CD04C4E376847F48047376036686A
:100BB00022F0030706F480460096484E07EB060C29
:100BC000DCF8086897073F0F09FA07F826EA0806D5
:100BD000DFF80C81404503D14FF0000841E072E09E
:100BE000DFF80081404502D14FF0010839E0DFF81D
:100BF000F880404502D14FF0020832E0DFF8EC8087
:100C0000404502D14FF003082BE0DFF8E480404577
:100C100002D14FF0040824E0DFF8D880404502D12B
:100C20004FF005081DE0DFF8D080404502D14FF0BD
:100C3000060816E0DFF8C480404502D14FF00708EF
:100C40000FE0DFF8BC80404502D14FF0080808E013
:100C5000DFF8B080404502D14FF0090801E04FF0C5
:100C60000A0808FA07F848EA0608CCF80888DAF80B
:100C700000605746D1F804C09E435FEACC2C00D5F3
:100C80001E433E60DBF800605F46D1F804C09E431F
:100C90005FEA8C2C00D51E433E60DEF8006077468C
:100CA000D1F804C09E435FEA8C3C00D51E433E60F1
:100CB000084F083F3E68D1F804C09E435FEACC3C31
:100CC00000D51E433E60521C102AFFF411AFBDE850
:100CD000F88F0000083C01404438024000300140D9
:100CE000000002400004024000080240000C0240E4
:100CF000001002400014024000180240001C024094
:100D000000200240002402400AB1816170470904BA
:100D1000FBE70000014880687047000014000020D5
:100D200070B5040013D021684CF6CC4008602168EF
:100D300045F255500860D4E9000141602168A0687F
:100D40008860FFF7E7FF054641F601060DE0012048
:100D500070BD00BFFFF7DEFF401BB04205D9206821
:100D6000C068800701D0032070BD2068C06880077C
:100D7000F0D121684AF6AA200860002070BD006802
:100D80004AF6AA21016000207047000002488168ED
:100D90000278114481607047140000200B4810B5A0
:100DA000016841F400710160016841F480610160F3
:100DB000016841F480710160032000F0B1F90F2057
:100DC00000F006F800F066F9002010BD003C02407B
:100DD00070B50D4D04464FF47A712878B1FBF0F0F0
:100DE0000A490968B1FBF0F000F058FD48B9102C31
:100DF00007D200222146501E00F072F900206C60DC
:100E000070BD012070BD00001400002020000020F3
:100E10002DE9F041044690F8A00016460F4601283F
:100E20001DD0012584F8A050022084F8A10006EB13
:100E3000860000EBC60004EB800034223830FFF758
:100E4000A9FA32463946204600F02CFF2068456258
:100E500084F8A150002084F8A000BDE8F0810220B1
:100E6000FBE770B5040004D094F8A100002510B190
:100E700006E0012070BD84F8A050204600F050F834
:100E8000022084F8A1002068816921F0704181610D
:100E9000D4E901010843D4E903121143084321684E
:100EA0008A6910438861A08AA16941EA00412068EB
:100EB0008160A08B216A41EA00412068C160A08C5A
:100EC000A16A41EA004120680161A08D216B41EADD
:100ED00000412068416194F835002168030294F8CC
:100EE0003600CA6A02F07F42CA622168CA6A94F870
:100EF000346043EA004032430243CA622068416BD7
:100F000041F0060141632068816941F0010181617E
:100F1000C4F8A450012084F8A100002070BD000096
:100F2000F0B593B0044614216846FFF765FA302106
:100F300005A8FFF761FA4F49206888427ED1082052
:100F40000590002464200E94022509900B9505A8B5
:100F500000F0F8F808B1FFF791FB4748016841F04D
:100F600080610160006800F0806011904248143890
:100F7000016841F020010160016801F02001119138
:100F8000016841F001010160016801F00101119166
:100F9000016841F002010160016801F00201119154
:100FA000016841F010010160016801F01001119128
:100FB000016841F008010160016801F00801119128
:100FC000016841F00401016000680E2600F0040091
:100FD00011904FF480600090CDE90154CDE90346B3
:100FE00069462648FFF776FD41F658000090CDE9A6
:100FF0000154CDE9034669462148FFF76BFD032004
:101000000090CDE901540920CDE903401D4F694608
:101010003846FFF75FFD4FF458400090CDE901548A
:10102000CDE9034669461848FFF754FD4FF4706058
:101030000090CDE901546946384600E018E0CDE95A
:101040000346FFF747FD4FF481600090CDE901545E
:10105000CDE9034669460D48FFF73CFDC0200090EE
:10106000CDE90154CDE9034669460948FFF732FD51
:1010700013B0F0BD00680140443802400014024043
:10108000000002400004024000100240000C024038
:10109000000802400A4808B5016841F48041016037
:1010A000006800F4804000900548001F016841F08E
:1010B00080510160006800F08050009008BD000081
:1010C00044380240002809DB00F01F020121914052
:1010D0004009800000F1E020C0F8001170470000D6
:1010E000F0B40E4B1B680C46C3F30223C3F1070593
:1010F000042D00D90425191D072901D2002300E081
:10110000DB1E012606FA05F1491E214099409E404A
:10111000761E16403143F0BC01F094B80CED00E0AF
:10112000064900F0070208684FF6FF03184040EA3E
:101130000220034A10430860704700000CED00E0F5
:101140000000FA052DE9F84F04460068DFF824A2F4
:10115000894F8A4DC1074FF001084FF0000603D1B7
:10116000810701D4400648D5CAF86860FFF7D2FD70
:10117000814605E0FFF7CEFDA0EB090002287DD8EF
:1011800028680001F6D42078C1077D4805D0616841
:10119000227A890141EA027101602178890711D51B
:1011A00001686268237B9201C1F3027142EA036223
:1011B00042EA017101603968E26921F01F01521EA3
:1011C000114339602178490608D56168227B89017D
:1011D00041EA0261227A41EA02710160CAF868803C
:1011E000FFF798FD814605E0FFF794FDA0EB0900AD
:1011F000022843D828680001F6D52068410701D4A9
:1012000000074ED5CAF87060FFF784FD814605E0FF
:10121000FFF780FDA0EB090002282FD82868C04303
:101220008000F5D520784107564814D50168226919
:10123000237D9201C1F3027142EA036242EA017125
:1012400001603968226A6FF0FF0321F4F85103EB63
:101250000222114339602178090712D501682269F9
:10126000C1F30361920142EA0161227E41EA027107
:1012700001603868616A20F4403000E051E00843C2
:101280003860CAF87080FFF745FD074605E000BFEB
:10129000FFF740FDC01B022843D82868C0438000E8
:1012A000F6D42078800653D534484030016841F0A8
:1012B000805101600068344D00F080500090286833
:1012C00040F480702860FFF725FD074605E000BF69
:1012D000FFF720FDC01B022823D82868C005F7D5DA
:1012E000274D143D286810F4407020D0218D01F462
:1012F000407181421BD0286820F440712348C0F817
:101300000080066029602868C00710D0FFF702FD42
:10131000064641F2883707E0FFF7FCFC801BB84225
:1013200002D90320BDE8F88F28688007F4D5A16AA8
:101330001248C1F301220830032A13D0016821F4B6
:10134000F81101602868218DC1F30B010843286062
:101350002078C00604D50E4994F82C00C1F8E001AD
:101360000020DFE702680B4B22F4F81219400A4311
:101370000260E7E7000047428C3802400038024034
:10138000843802408838024000700040400E4742D6
:1013900000104742FFFCFF0F2DE9F0470E46050005
:1013A00065D0DFF81481D8F80000F7B200F00F0024
:1013B000B04207D288F80070D8F8000000F00F00A3
:1013C000B04254D128683D4C810712D5400703D55F
:1013D000206840F4E05020602878000703D520689A
:1013E00040F4604020602068A96820F0F0000843C5
:1013F00020602878C0072DD0304968680839012856
:1014000012D0022813D0032811D0096889070029B7
:101410002DDA216821F0030101432160FFF77AFCF6
:10142000814641F2883A0EE009688903EFE70968CE
:101430008901ECE7FFF76EFCA0EB0901514502D9E9
:101440000320BDE8F0872068696800F00C00B0EB6D
:10145000810FEFD1D8F80010404601F00F01B142E2
:1014600007D90770006800F00F00B04201D00120DA
:10147000E7E72878400705D52068E96820F4E050C0
:10148000084320602878000706D52068296920F4E1
:10149000604040EAC100206000F018F82168084A66
:1014A000C1F30311515CC840064908600648006852
:1014B000FFF78EFC0020C4E7003C024008380240E1
:1014C000362400082000002018000020154810B520
:1014D000006810F00C02144813D01449042A0FD0ED
:1014E000082A0ED10F4C241F2268236802F03F0205
:1014F0005B0207D52068C0F38810A0FB010106E05D
:10150000084610BD2168C1F38811A1FB000100232A
:10151000FEF7BCFE2168C1F30141491C4900B0FB44
:10152000F1F010BD083802400024F40040787D013D
:101530002DE9F84F04006ED02078DFF84C93C007F7
:10154000A9F104054AD009F104000168C1F3810141
:10155000012908D00068C0F3810002280AD1D9F817
:101560000000400206D52868800337D5606800284F
:10157000E1D033E06068B0F5803F10D0B0F5A02F27
:10158000286810D020F480302860286820F480205B
:1015900028606068A8B1FFF7BDFB06460DE028682B
:1015A00040F48030F4E740F480202860F7E700BF83
:1015B000FFF7B0FB801B642873D828688003F7D539
:1015C0000CE0FFF7A7FB064605E000BFFFF7A2FB14
:1015D000801B6428F0D828688003F7D42078DFF8CF
:1015E000AC8280074FF0000A3ED5A748001D016875
:1015F00011F00C0F08D00068C0F3810002280BD155
:10160000D9F80000400207D42868800716D5E068A2
:10161000012800D112E033E1E068B8B10120C8F838
:101620000000FFF777FB064605E000BFFFF772FBFF
:10163000801B0228C0D828688007F7D52868216950
:1016400020F0F80040EAC10028600DE0C8F800A0D2
:10165000FFF760FB064604E0FFF75CFB801B0228F7
:101660001FD828688007F7D42078000722D5864F36
:1016700087486169703771B101210160FFF74AFB4A
:10168000064604E0FFF746FB801B022809D83868AD
:101690008007F7D50EE0C0F800A0FFF73BFB064639
:1016A00005E082E0FFF736FB801B02287DD8386812
:1016B0008007F7D42078400768D5DFF8CCB1002741
:1016C0000BF13C0BDBF80000C0000BD4DBF8001082
:1016D00041F08051CBF80010DBF80000012700F04A
:1016E000805000906B4E3068C00510D4306840F4D4
:1016F00080703060FFF70EFB009005E0FFF70AFBFB
:101700000099401A022850D83068C005F6D55E4EC0
:10171000A0686C3601280FD00528306810D020F062
:1017200001003060306820F004003060A068B8B17B
:10173000FFF7F0FA00900FE0306840F00100F4E7A6
:1017400040F004003060F7E7FFF7E4FA0099411A2F
:1017500041F28830814266D830688007F4D50EE0C7
:10176000FFF7D8FA009007E0FFF7D4FA0099411A82
:1017700041F28830814256D830688007F4D42FB1C6
:10178000DBF8001021F08051CBF80010A069C8B33D
:101790003D49091D0968C1F3810102294AD0022887
:1017A000504607D0C8F8600000E03CE0FFF7B2FA0E
:1017B00004463BE04746C8F86000FFF7ABFA064630
:1017C00005E000BFFFF7A6FA801B02282BD8286887
:1017D0008001F7D4D4E907010843A16A2E4A4908D9
:1017E00002EB0141626A41EA8211084394F82C102D
:1017F00040EA0161C9F8001001203866FFF78AFA53
:10180000044606E03EE000BFFFF784FA001B022812
:1018100009D828688001F7D534E000BFFFF77AFACD
:10182000001B022802D90320BDE8F88F2868800138
:10183000F4D427E00128F7D0D9F80000E26900F4D9
:10184000800191421CD1226A00F03F01914217D1E0
:1018500047F6C071626A0140B1EB821F10D1A26AE3
:101860004FF0FF3300F4403103EB5202B1EB024F73
:1018700006D194F82C1000F07060B0EB016F01D02D
:101880000120D1E70020CFE70438024000004742A2
:10189000800E4742007000400000FFFF10B5401E60
:1018A000B0F1807F01D3012010BD4FF0E0246061D2
:1018B0000F21601700F0C6FC0020A0610720206106
:1018C000002010BD7047704770B590F83C20012A89
:1018D00032D0012480F83C40022280F83D20036889
:1018E0005A689D6822F070060A6832435A60134BAA
:1018F00002689A4214D0B2F1804F11D0104B9A4234
:101900000ED0104B9A420BD00F4B9A4208D00F4B7F
:101910009A4205D00E4B9A4202D00E4B9A4204D105
:10192000496825F080031943916080F83D4000210B
:1019300080F83C10084670BD022070BD00000140D8
:101940000004004000080040000C0040000401407A
:10195000004001400018004010B5040003D094F886
:101960003D0010B107E0012010BD002084F83C00CC
:10197000204600F01FF8022084F83D00211D206859
:1019800000F0C2FB012084F8460084F83E0084F891
:101990003F0084F8400084F8410084F8420084F855
:1019A000430084F8440084F8450084F83D0000209A
:1019B00010BD000008B500680B49884212D10B48E1
:1019C000016841F0020101600068002200F002009D
:1019D000009011461D20FFF783FBBDE808401D2045
:1019E000FFF770BB08BD0000000400404038024013
:1019F00090F83D10012901D001207047022180F8A4
:101A00003D100168CA6842F00102CA6000681149CD
:101A1000884214D0B0F1804F11D00F4988420ED0C7
:101A20000E4988420BD00E49884208D00D498842A1
:101A300005D00D49884202D00C49884204D1816802
:101A400001F00701062903D0016841F0010101609E
:101A500000207047000001400004004000080040E2
:101A6000000C00400004014000400140001800400C
:101A700070B5044690F83C000025012817D00126D7
:101A800084F83C60022084F83D002068826822F0DF
:101A9000770222F47F4282600868502838D00DDC3B
:101AA00020284FD005DC90B3102811D14AE0022045
:101AB00070BD302846D040280AD13BE060282FD0A6
:101AC00070280DD0B0F5805F03D0B0F5005F12D064
:101AD000012584F83D60002084F83C00284670BD54
:101AE000CB68D1E90121206800F076FB206881688D
:101AF00041F0770109E0CB68D1E90121206800F0CD
:101B00006BFB2068816841F480418160E1E719E066
:101B1000CA684968206800F071FB5021206806E01F
:101B2000CA684968206800F07AFB6021206800F0EC
:101B30005DFBCEE7CA684968206800F05FFB402182
:101B40002068F4E7226801461046F0E770472DE967
:101B5000F04104460068C66805694FF00007A90710
:101B600013D5B10711D5F91E016101202077206836
:101B700080698007204602D0FFF7E8FF04E000F00C
:101B80007EF8204600F07CF82777680716D57007A6
:101B900014D521686FF004000861022020772068C6
:101BA000806910F4407F204602D0FFF7CFFF04E0A9
:101BB00000F065F8204600F063F82777280715D570
:101BC000300713D521686FF00800086104202077E2
:101BD0002068C0698007204602D0FFF7B7FF04E005
:101BE00000F04DF8204600F04BF82777E80616D5B0
:101BF000F00614D521686FF01000086108202077E6
:101C00002068C06910F4407F204602D0FFF79EFF95
:101C100004E000F034F8204600F032F82777E807B7
:101C200008D0F00706D021686FF001000861204657
:101C300000F028F8280608D5300606D521686FF090
:101C4000800008612046FFF73DFE680608D5700653
:101C500006D521686FF040000861204600F020F8AA
:101C6000A8060AD5B00608D521686FF020000861E3
:101C70002046BDE8F041FFF726BEBDE8F081704781
:101C80007047000000680449884204D1034890ED81
:101C9000030A00F0E7BA704700040040000000208B
:101CA0007047FEE7F0B503688C88DD68C5F30B4527
:101CB0002C442504882404EBC2141E5906F47046F3
:101CC0001E5103680F68DE68C6F30B46761C3E445F
:101CD0002E431E5103688C89DD68C5F30A052C4428
:101CE00025048C2404EBC2141E5906F470461E51C0
:101CF00003688F68DE68C6F30A06761C3E442E43EE
:101D00001E519423046803EBC213E55825F0070520
:101D1000E55005680C69EC5091F831300C7E1E02DC
:101D200091F8323091F830501B04354343EA046394
:101D30001D439C24036804EBC2141D5198230468BE
:101D400003EBC213E55825F0FF05E55005684C6923
:101D5000EC50A023046803EBC213E55840F2077669
:101D6000B543E550D1E907452C430568EC50AC2557
:101D7000046805EBC2154B6A63510B698BB3012BE9
:101D800032D0042B32D0022B30D0032B2ED0072B95
:101D90002CD00123B024056804EBC2142E5906F0A0
:101DA000E0262E51D1E90065AD1B0E8D5D435E43EB
:101DB000ED1C45EA064305682B51B423046803EB88
:101DC000C213E5586FF30A05E5500468C96AE1508B
:101DD0000068842101EBC211425842F001024250D6
:101DE000F0BDFFE70423D5E70323D3E70223D1E7C0
:101DF0007FB500241448009401940294114903947F
:101E0000C0E9001484600461047680F820400F4922
:101E1000C0E90A140125C561C46080F830404561FD
:101E2000FEF789FD08B172B6FEE70948CDE9000565
:101E3000694602940448FEF725FC002801D072B6DA
:101E4000FEE77FBD00200140240000200100000FBC
:101E50001200001070B586B014216846FEF7CCFA67
:101E600026480024016841F020010160016801F06A
:101E700020010591016841F001010160016801F054
:101E800001010591016841F002010160016801F062
:101E900002010591016841F010010160016801F043
:101EA00010010591016841F008010160016801F02D
:101EB00008010591016841F004010160016801F029
:101EC00004010591016841F04001016000680C4E79
:101ED00000F040004FF4804505900022294630462E
:101EE000FEF712FF01200095CDE901046946304656
:101EF0000394FEF7EFFD06B070BD000030380240DD
:101F00000018024070B59AB034216846FEF774FAA2
:101F100034210DA8FEF770FA30482F490024C0E99B
:101F2000001484600721C460C0E904410321816179
:101F30000E210525C0E9071540F28E21416240F2CD
:101F4000E51181624FF42571C16240F2E71101632E
:101F500080F8344080F8354080F83640FEF781FF45
:101F600008B172B6FEE7019402944FF48066CDE9A1
:101F70000646039404940094CDE908548DF830404B
:101F800005948DF831400A940B948DF8324000226C
:101F900069461248FEF73CFF08B172B6FEE70D94A1
:101FA0000E940F94109411941294CDE91346CDE938
:101FB00015548DF864408DF86540179418948DF889
:101FC000664001220DA90548FEF722FF002801D036
:101FD00072B6FEE71AB070BD0068014078000020BC
:101FE00010B586B00024164800940194029403941E
:101FF000049412490594C0E900144FF6FF71C0E93A
:10200000024104618461FFF7A7FC08B172B6FEE7E4
:102010004FF48050009069460948FFF729FD08B148
:1020200072B6FEE7049404A905480594FFF74CFC3A
:10203000002801D072B6FEE706B010BD00040040D3
:1020400020010020FEE7FEE770477047FEF79EBEC6
:1020500010B592B030216846FEF7CEF914210CA8D5
:10206000FEF7CAF91F48016821F03F0141F0100155
:102070000160016821F4800101601A4800243C30AD
:10208000016841F080510160006800F080501190BB
:102090001548016821F4404141F480410160006825
:1020A000102100F4404011900A2000900120CDE959
:1020B0000301CDE9050468460794FFF739FA08B132
:1020C00072B6FEE70F20CDE90C040E940F940021A8
:1020D0000CA81094FFF760F9002801D072B6FEE753
:1020E00012B010BD04380240007000400248016880
:1020F00041F470010160704788ED00E00148FFF78E
:1021000026BD000020010020F0B50268274B284DB5
:10211000284E294F294C4FF0804C984209D06045F9
:1021200007D0A84205D0B04203D0B84201D0A042A7
:1021300004D122F0700E4A6842EA0E0298421BD087
:10214000604519D0A84217D0B04215D0B84213D07C
:10215000A04211D01A4DA8420ED01A4DA8420BD061
:10216000194DA84208D0194DA84205D0184DA842D3
:1021700002D0184DA84203D122F44075CA682A4300
:102180004D6922F080022A438D68C5620D68856220
:10219000984201D0A04201D109690163016841F070
:1021A00004010160012141610260F0BD00000140B5
:1021B0000004004000080040000C00400004014002
:1021C0000040014000440140004801400018004028
:1021D000001C00400020004010B5846842EA032241
:1021E00024F47F440A432243826010BD826822F0B7
:1021F00070020A4342F007018160704710B5036A1C
:10220000046A24F001040462846924F0F00444EABE
:10221000021423F00A020A438461026210BD10B561
:10222000036A046A24F010040462846923F0A003A2
:1022300024F4704444EA023243EA011182610162EB
:1022400010BDFEE70907090E002804DB00F1E020BD
:1022500080F80014704700F00F0000F1E02080F8D3
:10226000141D704770B5114C114E2046D4ED010A73
:1022700042784FF48045B4EEE00AF1EE10FA0BDD3F
:10228000002A12D10BA0FEF779F801222946304628
:10229000FEF73AFD012007E0002A06D00022294679
:1022A0003046FEF731FD0020607070BD0000002058
:1022B0000018024043414C4C0000000005490968E9
:1022C000C90105D54FF060410A68002AFCD00870AA
:1022D00070470000FCED00E010B50F4C2068800056
:1022E00002D50EA0FEF74AF82068400102D516A0DC
:1022F000FEF744F82068000102D51EA0FEF73EF864
:102300002068C00002D520A0FEF738F8206840F011
:102310008070206010BD0000743802405741544363
:1023200048444F472052455345543A2048C44E47ED
:102330004552204245492057454E4947204C41537C
:1023400054210D0A00000000524553455420647585
:102350007263682065787465726E656E205265736D
:1023600065742D50696E20284E52535429210D0A50
:1023700000000000506F7765722D4F6E2D5265730F
:102380006574210D0A000000536F667477617265F1
:102390002D5265736574210D0A000000FEF7FEFCE6
:1023A0001CA0FDF7EBFFFFF797FFFFF751FEFFF7CC
:1023B00051FDFFF71DFD1B481949016000214160D7
:1023C00040F6FF718160FEF7ABFC08B172B6FEE724
:1023D000FFF798FDFFF704FE12484838FEF7F4FABD
:1023E0001048B430FFF704FB0F4C00BFD4ED030AD4
:1023F00094ED020AF4EEC00AF1EE10FA01D20120C7
:1024000000E0002020700028F0D10648FEF7B7FC5D
:10241000ECE7000048414C20494E49540A000000B6
:10242000003000406C000020000000204FF04070A1
:10243000E1EE100A704700000000000000000102F9
:1024400003040607080900006824000800000020B3
:1024500024000000E80100088C240008240000206B
:10246000A407000004020008000000000000F04182
:102470000000C84100000000000000000100000052
:0C24800010000000000000000024F40028
:04000005080001AD41
:00000001FF
