:020000040800F2
:10000000900A00206D0200084F4A0008D3450008FE
:100010004D4A0008351E0008A74E000800000000E9
:10002000000000000000000000000000AD4C0008CF
:10003000491F000800000000514A0008AF4C0008AA
:10004000870200088702000887020008870200086C
:10005000870200088702000887020008870200085C
:10006000870200088702000887020008870200084C
:10007000870200088702000887020008870200083C
:100080008702000887020008ED15000887020008B3
:10009000870200088702000887020008870200081C
:1000A000870200088702000887020008870200080C
:1000B00087020008614D00088702000887020008D7
:1000C00087020008870200088702000887020008EC
:1000D00087020008870200088702000887020008DC
:1000E00087020008870200088702000887020008CC
:1000F00087020008870200088702000887020008BC
:1001000087020008870200088702000887020008AB
:10011000870200088702000887020008870200089B
:10012000870200088702000887020008870200088B
:10013000870200088702000887020008870200087B
:10014000870200088702000887020008870200086B
:10015000870200088702000887020008870200085B
:10016000870200088702000887020008870200084B
:1001700087020008870200088702000800000000CC
:10018000870200088702000887020008870200082B
:10019000870200088702000887020008870200081B
:1001A00087020008870200088702000800F002F8B2
:1001B00000F04CF80AA090E8000C82448344AAF1B5
:1001C0000107DA4501D100F041F8AFF2090EBAE8B3
:1001D0000F0013F0010F18BFFB1A43F0010318477B
:1001E000506F0000706F0000103A24BF78C878C1CB
:1001F000FAD8520724BF30C830C144BF04680C602D
:10020000704700000023002400250026103A28BF74
:1002100078C1FBD8520728BF30C148BF0B60704778
:10022000662905F0D181642900F0DE800020704746
:100230001FB505F0C4F900F097FC04000020002170
:1002400005F030F9E0601FBD10B510BD00F090FD65
:100250001146FFF7EDFF05F0A7F800F0AEFD03B47F
:10026000FFF7F2FF03BC00F0F1FD000009488047F2
:1002700009480047FEE7FEE7FEE7FEE7FEE7FEE788
:10028000FEE7FEE7FEE7FEE704480549054A064BA0
:1002900070470000514D0008AD0100089004002097
:1002A000900A0020900600209006002053EA020CDD
:1002B00000F069802DE9F04B4FF00006002B1FBFC6
:1002C000B3FA83F503FA05F424FA05F65E4012BF8B
:1002D0001643B2FA82F502FA05F4C5F120051EBFF5
:1002E00022FA05FC44EA0C04203556EA044C4FEA95
:1002F000144418BF641C4FF000084FF000099042EE
:1003000071EB030C39D3002919BFB1FA81F701FA57
:1003100007F6B0FA80F700FA07F6C7F120071EBF0C
:1003200020FA07FC46EA0C062037B6FBF4FCA7EBE4
:100330000507103F07F01F0BCBF120060CFA0BFB53
:100340002CFA06F644BFB3460026202FA4BF5E4613
:100350004FF0000B5BEA060C08BF4FF0010B19EBE6
:100360000B09ABFB027C48EB0608C01B06FB02CC6A
:100370000BFB03CC71EB0C01C1E70B460246414677
:100380004846BDE8F08B13B54FF000004FF0000178
:10039000AFF30080BDE81C40704700000FB4044973
:1003A00010B503AA029800F0CDFB10BC5DF814FB59
:1003B000000000200FB41CB50C0007AA009001D06B
:1003C0002044401E074B7B4469460190069800F08C
:1003D00098FB002C03D06946002000F0A5FB1CBC54
:1003E0005DF814FB690700002DE9F0410646002482
:1003F00010687529314616A510D0AFF3008000288B
:1004000002DA404213A507E031688A0701D512A538
:1004100002E0490704D511A5012401E0AFF30080F3
:1004200000210A2206F1240709E0B0FBF2FCB0FB30
:10043000F2F302FB1C00303078541846491C0028A7
:10044000F3D123462A463046BDE8F04100F0EBB830
:10045000000000002D0000002B0000002000000024
:100460002DE9F0474FF0000A89460446C0F820A065
:100470002046E1688847002876D0252806D0D4E9B0
:1004800001219047206A401C2062F1E7E168204684
:1004900000258847C4F81CA006460027C4F818A009
:1004A0002A2E09D0304604F027FD38B304EB870824
:1004B000303EC8F8186019E059F8041B204604EBD8
:1004C00087029161E1688847012F064618D1E069EB
:1004D000002820DA25F020051DE0D8F8180000EBF0
:1004E000800006EB40003038C8F818002046E1686C
:1004F0008847064604F000FD0028EED1012F0AD0FF
:100500002E2E08D12046E16888477F1C0646022F20
:1005100045F02005C4DBA069002803DA404245F01D
:100520000105A061E80701D025F01005B6B1A6F1DC
:100530004100192802D8203645F400654A46314664
:10054000204625604D46FFF76BFE58B1012806D0C6
:10055000ED1D25F0070000F1080989E704E005F129
:10056000040985E730468AE7206ABDE8F08710B5C0
:10057000203AC0F00B80B1E81850203AA0E818509B
:10058000B1E81850A0E81850BFF4F5AF5FEA027C5C
:1005900024BFB1E81850A0E8185044BF18C918C0CB
:1005A000BDE810405FEA827C24BF51F8043B40F86C
:1005B000043B08BF7047D20728BF31F8023B48BF51
:1005C00011F8012B28BF20F8023B48BF00F8012B8F
:1005D00070474FF0000200B5134694469646203906
:1005E00022BFA0E80C50A0E80C50B1F12001BFF4EC
:1005F000F7AF090728BFA0E80C5048BF0CC05DF852
:1006000004EB890028BF40F8042B08BF704748BF9F
:1006100020F8022B11F0804F18BF00F8012B704713
:100620007047704770472DE9F0470D46994692464E
:10063000044600F124080168880604D5E06921F029
:100640001001216000E00120A84201DD471B00E00D
:100650000027A1697A1902EB0900081AA061207825
:10066000C00602D42046AFF30080002608E0D4E99B
:1006700001211AF806009047206A401C761C20626F
:100680004E45F4DB2078C0060AD52046AFF3008043
:1006900006E0D4E9012130209047206A401C206206
:1006A000381EA7F10107F4DC07E0D4E9012118F8AE
:1006B00005009047206A401C2062281EA5F1010514
:1006C000F3DC2046AFF300802078000602D502203C
:1006D000BDE8F0870120FBE770472DE9FF4F0C468E
:1006E0001E464FF0FF378BB0D2E90001DDF8608085
:1006F0000A908A46C1F30A5505B93D4600210846CD
:100700004FF00000BAF1000F00F4400005DA00EBF2
:1007100080004FF4400101EA50004FEA9059B9F1CE
:10072000010F00DDB9460A9850EA4A000ED044F69F
:100730001050A5F2FF3545432F14B8F1000F1ED01D
:100740007542291E1EDDC9F100021CE0B8F1010F3F
:100750004FF0000001D0302103E0F24305E02154C6
:10076000401CB042FBDB30460022002121540B9993
:10077000C1F80880C1E900200FB0BDE8F08FBD1BB3
:100780006D1CDEE74A4600DA694206A800F076FAF8
:1007900006AB93E8070003AB83E8070050460A99CD
:1007A00000F05BFB8DE80700A0F500501F380090BB
:1007B0000398002D0ADD42F21F014A460844002337
:1007C00003A90390684600F0C4FD09E0A0F50050BD
:1007D0004A461F38002303A90390684600F0CEFD67
:1007E0008DE807000004000C03D04FF0FF304108F3
:1007F00000E01046B8F1000F03D000220092154629
:100800001EE0751E05D400F0B3F9303262556D1E3E
:10081000F9D5B3460122084302D000227F1C04E030
:100820002078302801D100227F1E002A099784D029
:100830001DE0112D07DA00F09BF9303262556D1C76
:1008400050EA0102F5D1084302D00098C8B10EE089
:100850000021681E05E0235C625C63542254401E44
:10086000491C8142F7DBAB46A81B401E09900020C3
:1008700004F80B000B98099AC0F80880C0E9002B17
:100880007AE711264FF0000857E72DE9F04F884628
:100890000446D21D22F0070191B0D1E90001CDE953
:1008A0000A0104F001FB02460B98C00F01D02D2075
:1008B00007E02068810701D52B2002E0202101EA12
:1008C000C000032A099001D0072A05DB03464146F0
:1008D000204600F093F90BE12078800601D5E0690D
:1008E00000E00620B8F1650F814606D0B8F1660F2A
:1008F00018D0B8F1670F70D131E00020B9F1110FB5
:10090000009001DB112301E009F101030AAA01A90A
:100910000CA8FFF7E2FEDDE90C70002609F10105E5
:10092000834647E001204B4600904FF000470AAA5B
:1009300001A90CA8FFF7D1FEDDE90DB00C995D46C9
:10094000002610B909F101000D18B9EB050003D418
:10095000C0F1FF3609F10105A5EB09002BE0B9F163
:10096000010F01DA4FF001090020B9F1110F0090D9
:10097000484601DD112300E003460AAA01A90CA89C
:10098000FFF7ABFEDDE90C704D460026834620786C
:1009900000070AD4AB4500DA5D4601A8012D04DD4D
:1009A000411911F8011C302907D04F4502DA17F11F
:1009B000040F04DA012082460FE06D1EEEE7002FDF
:1009C00002DCED1B3E4403E0781CA84200DD7D1CE8
:1009D000B81B00F1010A4FF000472078000703D44C
:1009E000AA4501DB4FF0FF3A0021B7F1004F0DF1AE
:1009F00043088DF8431024D002202B23002F01DA66
:100A00007F422D230A21021EA0F1010000DC5FB10C
:100A100097FBF1FC97FBF1F201FB1C7C17460CF1F4
:100A2000300C08F801CDEEE7A8F101000370218831
:100A3000090501D5452100E06521A0F1010800F874
:100A4000011C09980FA9A1EB0807FF1D00B10120A7
:100A5000411901EBEA70A1693844081A401EA061EF
:100A60002078C00602D42046AFF30080099828B150
:100A7000D4E901219047206A401C20622078C006FA
:100A800022D52046AFF300801EE0002E04DBB345E4
:100A900002DD01A8805D00E03020D4E9012190470B
:100AA000206A401C2062761CAAF101005FEA000A5D
:100AB0000AD100F059F8C0680168405CD4E901210E
:100AC0009047206A401C2062281EA5F10105DCDC4D
:100AD00007E0D4E9012118F8010B9047206A401C77
:100AE0002062381EA7F10107F3DC2046AFF3008037
:100AF000032011B041E6000001694A1C0261087838
:100B0000704700B58FB0CDE901310021059105494D
:100B10007944CDE9031011466846FFF7A1FC0FB0F8
:100B200000BD0000E5FFFFFF0A6802F8010B0A6044
:100B30007047D1E900239A4202D2531C0B60107017
:100B400070470000074B70B50D467B44FFF7D9FF97
:100B50000446284600F004F910B14FF0FF3070BD94
:100B6000204670BD93440000004870474C040020AC
:100B700030B5B0F10A024FEA900E71F100034EEA6F
:100B8000817EB0EB0E0061EB91014FEA101E4EEA40
:100B9000017E10EB0E0041EB11114FEA102E4EEAD0
:100BA000016E10EB0E0041EB11214FEA104E4EEAA0
:100BB000014E10EB0E0041EB1141401841F10001D4
:100BC0004FEAD00040EA41704FEAD10110EB8005B6
:100BD0004FEA810444EA907444EB01046D1944EB3C
:100BE0000404521BA3414FF0000348BF0A3200D552
:100BF00030BD401C41F1000130BD00002DE9F04145
:100C00001F46044603260168072A01F4006004DB3E
:100C100008B116A505E016A503E008B115A500E08A
:100C200015A521F010002060A069C01EA0610FB1C1
:100C3000401EA0612046AFF300804FB1D4E90121EE
:100C400038469047206A401C2062C01C206206E0A3
:100C5000206AFAE7D4E9012115F8010B9047761EC6
:100C6000F8D22046AFF30080BDE8F0814E414E003F
:100C70006E616E00494E4600696E66002DE9F047D0
:100C8000814616468AB0354878440DC88DE80D0077
:100C900032487844801C03AC0DC884E80D0041F64E
:100CA0009B300844372190FBF1F290FBF1F5A5F160
:100CB000800501FB12041B3C02D56442012000E0C8
:100CC0000020DFF898A080460027FA44AAF1BE0A67
:100CD0000EE0E0070AD03246684607EB47010123E1
:100CE0000AEB810100F04AFB8DE8070064107F1CCD
:100CF000002CEED1194F7F44AE3F19E0E80715D024
:100D000007EB04100DF1180A90E80E008AE80E00B7
:100D1000C068F04201D1981908903246012306A913
:100D200003A800F02BFB03AB83E807006D10641CE5
:100D3000002DE3D14FF0010332466946B8F1000FB0
:100D400003A802D000F005FB01E000F017FBC9E9A1
:100D50000001C9F808200AB0BDE8F0878C640000E3
:100D6000007B00F080007047004870472C04002092
:100D70007546FFF7F9FFAE4605006946534620F079
:100D80000700854618B020B5FFF77EFABDE8204081
:100D90004FF000064FF000074FF000084FF0000B37
:100DA00021F00701AC46ACE8C009ACE8C009ACE8EA
:100DB000C009ACE8C0098D46704710B50446AFF3D2
:100DC00000802046BDE81040FFF749BA4FF0013CD3
:100DD00050F8042B51F8043B9A4221D1A2EB0C03AA
:100DE000934313EACC1317D150F8042B51F8043B6A
:100DF0009A4215D1A2EB0C03934313EACC130BD107
:100E000050F8042B51F8043B9A4209D1A2EB0C0391
:100E1000934313EACC13DBD04FF00000704700BFC0
:100E2000D01A01BAB1FA81F101F0180122FA01F0E9
:100E3000CB40C1F12001DBB2C0B2C01A2CFA01F3E1
:100E4000D11A914311EAC311E6D170470149182024
:100E5000ABBEFEE72600020070475FEA400C08BF09
:100E600091F0000F4FEA8C234FEAC12243EA51511F
:100E70004FEA1C5018BF00F5F0404FEA300018BF91
:100E800041F000415FEA6C5C00F02980BCF1FF3F5B
:100E900008BF40F080407047130C06BF12044FF0AB
:100EA000100C4FF0000C130E04BF12020CF1080CD2
:100EB000130F04BF12010CF1040C930F04BF920036
:100EC0000CF1020CD30F04BF52000CF1010C1146BF
:100ED0004FF00002A0F11F00A0EB0C00704711F0D2
:100EE000004F08BF704731F000413FF4D5AF0B0C05
:100EF00006BF09044FF0100C4FF0000C0B0E04BF9E
:100F000009020CF1080C0B0F04BF09010CF1040CD1
:100F10008B0F04BF89000CF1020CCB0F04BF4900FA
:100F20000CF1010CCCF12003A0EB0C0022FA03F32E
:100F300002FA0CF241EA030100F10100704720F0CF
:100F40007F4C80EA030023F07F47ACEB070303F5F7
:100F50007C5300F0004003F1FF032DE980494FEA84
:100F6000154B09B44FEA144325EA0B4E24EA034813
:100F70000FF2042606EB132749083E785FEA320297
:100F800003FB0667C7F5000707FB06F64FEA543771
:100F90004FEAD64606F1020607FB066CCCF1005C70
:100FA0004FEA1C472CEA074C07FB06F40CFB06F53E
:100FB00004EB15464FEA961634BF00204FF0004070
:100FC0004FEAD13706FB07FC4FEA1C4C0CFB0BF732
:100FD000D21B03FB0CF761EB07010CFB0EF7B0EB28
:100FE000074072EB17420CFB08F734BFA2EB074235
:100FF000B2EB074261EB17414FEA0C444FEA91070D
:1010000006FB07FC4FEA1C4C0CFB0BF7B0EBC74090
:1010100072EB573203FB0CF734BFA2EBC742B2EBC3
:10102000C74261EB57310CFB0EF7B0EBC70072EB18
:1010300057720CFB08F734BFA2EBC702B2EBC70232
:1010400061EB5771039F4FEA816141EA921104EB12
:10105000CC044FEAD1374FEA826206FB07FC42EA32
:1010600090124FEA80604FEA1C4C0CFB0BF7D21B2E
:1010700003FB0CF761EB07010CFB0EF7B0EB07402D
:1010800072EB17420CFB08F734BFA2EB0742B2EB3E
:10109000074261EB17414FEA8C554FEA910704EB89
:1010A0009C2406FB07FC4FEA1C4C0CFB0BF7B0EB37
:1010B000C74072EB573203FB0CF734BFA2EBC742B9
:1010C000B2EBC74261EB57310CFB0EF7B0EBC70038
:1010D00072EB57720CFB08F734BFA2EBC702B2EBFE
:1010E000C70261EB577115EB4C254FEA816141EA6C
:1010F00092114FEA82624FEAD13742EA901206FB20
:1011000007FC44F100044FEA80604FEA1C4C0CFBE2
:101110000BF7D21B03FB0CF761EB07010CFB0EF77F
:10112000B0EB074072EB17420CFB08F734BFA2EBA1
:101130000742B2EB074261EB174115EB1C154FEA72
:10114000813141EA92414FEA823242EA90424FEACB
:1011500080304FEA0C7644F1000448EA03434EEA3B
:101160000B484FF0000EB2EB080C71EB030724BFE5
:10117000624639464EEB0E0E4FF0000B00185241FE
:1011800049414BEB0B0BB2EB080C71EB03077BF106
:10119000000B24BF624639464EEB0E0E4FF0000B9B
:1011A0000018524149414BEB0B0BB2EB080C71EBB1
:1011B00003077BF1000B24BF624639464EEB0E0E4F
:1011C00051EA020718BF46F0010616EB0E7655F1FC
:1011D000000254F1000103D5BDE88901BDE8008893
:1011E000BDE88901BDE80048B619524141EB010153
:1011F000A3F10103704780807F7E7D7C7B7A7978C4
:10120000777676757473727171706F6E6E6D6C6CCB
:101210006B6A6A696868676666656464636362616D
:101220006160605F5F5E5E5D5D5C5C5B5B5A5A59EE
:10123000595858575756565555555454535352525A
:101240005251515050504F4F4F4E4E4D4D4D4C4CB2
:101250004C4B4B4B4A4A4A494949484848474747FB
:101260004746464645454544444444434343434238
:10127000424242414141002B9C4630D477002BD062
:101280001CB54FEA370703B44FF010004FF01001C0
:10129000BAF1000F06D0BCF1000FDCBF40F008002F
:1012A00040F008014FF000000FBCBDE810400BF10A
:1012B000010BBBF1010F08BF5FEA170722BF12F154
:1012C000010211F101014FF0004143F1000300F070
:1012D000004043EA00007047F9D35708D0E746EAD8
:1012E000064613F1400F4FEA16461FDD13F1200F9B
:1012F000DFBF16430A46002120335B42BED0C3F154
:10130000200746EA064602FA07F74FEA164646EA7B
:101310000706C3F1200722FA03F201FA07F721FAC0
:1013200003F14FF0000342EA0702A7E746EA02068C
:1013300046EA06464FEA164646EA0106BCBF46EABA
:101340000646360C4FF000034FF000024FF000014C
:1013500094E72DE9804C9A46934670B491E83800A2
:1013600007C831EA400C48BF34EA430C03D5FFF705
:10137000E6FDFFF780FFF0BCBDE8008C2DE9804C56
:101380009A46934670B491E8380007C810F0804F31
:1013900008BF13F0804F03D100F005F8FFF76BFF93
:1013A000F0BCBDE8008C20F07F4780EA030023F00A
:1013B0007F4C07EB0C03A3F57C5300F00040A3F136
:1013C000FE0392F0000F00F0B38095F0000F00F0E4
:1013D00077802DE901494FEA11404FEA144621EA8E
:1013E000004800FB06FC24EA064708FB06F607FB5C
:1013F00008F800FB07F718EB06484CEB164C4FEAD1
:10140000124B18EB07484FEA15464CEB174022EAFF
:101410000B4E0BFB06FC25EA06470EFB06F607FB08
:101420000EFE0BFB07F71EEB064E4CEB164C4FF077
:1014300000061EEB074E4CEB174B18EB0B0840F168
:10144000000018EB0E0B58EB000840F100008F1A5B
:101450004FF000013CBFC943661B14BFB5EB040C41
:1014600000213CBFC943F61B4FEA17444EEA8E0EDB
:1014700027EA04454FEA1C4704FB07622CEA074CA5
:1014800005FB07F70CFB05F604FB0CFC16EB074607
:1014900042EB174216EB0C4642EB1C421BEB0606D6
:1014A00058EB0202414146EA9E0601D5BDE801899A
:1014B000B619524141EB0101A3F10103BDE80189D5
:1014C0004FEA14454FEA114724EA054621EA074C42
:1014D00005FB07F406FB07F70CFB06F105FB0CFC0C
:1014E00011EB074144EB17444FEA124711EB0C4153
:1014F00044EB1C4422EA074C05FB07F206FB07F706
:101500000CFB06F605FB0CFC16EB074642EB1742FC
:1015100016EB0C4642EB1C456A1854F1000148BF1B
:101520007047B619524141EB0101A3F10103704725
:1015300095F0000F37D04FEA11424FEA144721EAE5
:10154000024624EA074C02FB07F106FB07F70CFBF7
:1015500006F402FB0CFC14EB074441EB17414FEA85
:10156000154714EB0C4441EB1C4125EA074C02FBE8
:1015700007F506FB07F70CFB06F602FB0CFC16EB67
:10158000074645EB174516EB0C4645EB1C42121976
:1015900051F1000148BF7047B619524141EB0101BA
:1015A000A3F1010370474FEA14454FEA114724EABB
:1015B000054621EA074C05FB07F106FB07F70CFB84
:1015C00006F24FF0000605FB0CFC12EB074241EB64
:1015D000174112EB0C4251EB1C4148BF7047921867
:1015E00041EB0101A3F1010370470000014800F045
:1015F000A9BE000094000020464910B54A6822F4B4
:1016000040324A604A6843681A434A6001684A683F
:1016100022F480724A6001684A68036942EA032240
:101620004A6001684A6822F040724A6001684A686C
:1016300083681A434A6001688A6822F400628A60FB
:1016400001688A68C3681A438A60816A6FF07062B1
:10165000D14201688A6822F070628A6001688A68F3
:101660000CD0836A1A438A6001688A6822F040526B
:101670008A6001688A68C36A1A4301E022F0405216
:101680008A6001688A6822F002028A6001688A68BA
:10169000037E42EA43028A6090F820100029016824
:1016A0004A680FD042F400624A6001684A6822F436
:1016B00060424A6001684A68174C436A04EB43334E
:1016C0001A4301E022F400624A600168CA6A22F407
:1016D0007002CA620168CA6A838B104C04EB035320
:1016E0001A43CA6201688A6822F400728A6001683B
:1016F0008A6890F8303042EA43228A6001688A683A
:1017000022F480628A6001688A68406942EA802027
:10171000886010BD0023014000E0FFFF0000F0FFE3
:101720007CB5054600F0EAF8044600F0E1F8024610
:101730000020CDE900050748074B006800EB800159
:1017400001EBC00103EB81012346C96D00F010FDE0
:101750007CBD000048000020DC0100200A4B30B4B2
:101760001B6803EB4304094B03EB84039B68DD8890
:101770001C689B88DB1DDB08203A13FB02F205FB8B
:10178000024230BC00F0E2BB48000020F40200201E
:101790002DE9F0470446002799468A461546B84683
:1017A000104601E008F1010810F8011B0029F9D1E9
:1017B00000F09EF8254A264E4B461168B9F1010FFC
:1017C00001EB410106EB810189688988B0FBF1F0EA
:1017D00002D0022B0BD105E0A0EB0800484304EB3C
:1017E000500003E0A0EB080000FB014084B29046EB
:1017F00000F07EF80146D8F8000000EB400006EB50
:1018000080008068808807FB101189B2814213D361
:10181000012012E051462046FFF7A0FFD8F8000053
:101820007F1C00EB400006EB8000BFB280686D1C9F
:101830008088204484B2DBE700202A780AB10121A5
:1018400000E000210842E5D1BDE8F0874800002013
:10185000F402002070B514460D46064600F048F824
:10186000074905FB0060096801EB810202EBC10139
:10187000044A02EB8101C96D41F8204070BD0000AF
:1018800048000020DC0100202DE9FC47164C804672
:10189000164F2068994600EB400016460D4657F853
:1018A000200000F089F900F023F8216800FB058092
:1018B00001EB810202EBC101A7F58C7202EB810101
:1018C000C96D01EB800500F013F8811B20684B46C1
:1018D00000EB400257F82220CDE90012324629469B
:1018E00000F046FCBDE8FC8748000020F402002020
:1018F00001484068806A004748000020014840686D
:10190000C06A00474800002070B5214C1F480025E0
:101910002060092060610120A0611D20E06103209A
:10192000206240F20D10606240F24310A06240F26B
:101930001710E06240F24710206384F8365084F8B4
:10194000345004F1E80084F8355008210160C021CA
:10195000016104218161C903416201F029FD6560D3
:10196000A560E560256100F059F8204601F048FBCC
:101970000949084848600068804700F029F906488E
:10198000083000F0F5F8002070BD0000006801404C
:10199000DC0100205C0000204800002070B58EB003
:1019A00000240E4605460094FFF7A2FFCDE901048E
:1019B000FFF7A4FF0996CDE90304FF20CDE9050454
:1019C0008DF830408DF831408DF832404FF4C060D2
:1019D000079007200890FFF78BFF0A90FFF78EFF14
:1019E0000B902A4669460A4801F0C8FA094905EBF6
:1019F000450001EB8002631E5360074B93604FF07C
:101A00007F4241F82020024801F0E2FA0EB070BD9A
:101A1000DC010020F40200205000002030B54348D3
:101A200087B00021026842F080620260006800F026
:101A3000806005903D481438026842F4000202605C
:101A4000026802F400020592026842F0010202609C
:101A5000026802F001020592026842F0020202608E
:101A6000026802F002020592026842F0040202607B
:101A7000026802F004020592026842F00802026065
:101A8000026802F008020592026842F02002026039
:101A9000026802F020020592026842F040020260F1
:101AA000006800F04000059041F6580000900220C8
:101AB000CDE9010103900E20049069461C4801F015
:101AC000BFF84FF470601B4C00906946204601F04F
:101AD000B7F84FF4986000906946174801F0B0F8E5
:101AE000482000906946154801F0AAF8201500909A
:101AF0006946134801F0A4F84FF40C60114D0090B2
:101B00006946284601F09CF80320009009200490C3
:101B10006946204601F094F84FF4A05000906946C1
:101B2000284601F08DF807B030BD0000443802406F
:101B3000000002400004024000080240000C024085
:101B4000001402400018024001490860704700007C
:101B5000480000200449054A096801EB410102EBF5
:101B6000810148607047000048000020F402002016
:101B70000449054A096801EB410102EB81018860D3
:101B80007047000048000020F40200202DE9F041D9
:101B90001F4615460E460446034639460548069A32
:101BA00001F084FB23462A463146BDE8F041014856
:101BB00001F052BBDC0100200349044A096801EB33
:101BC000410142F82100704748000020F402002043
:101BD00070B51B4819490423016000F13401022249
:101BE00007248B60C1E90024C1E903424A618A618C
:101BF0001021C0E903314021416101260024C0E9E0
:101C000001644FF4C071C0E906149102C0E90814E0
:101C100089008162214600F05BF8094908483431A7
:101C200001F070FF074D08B12E7000E02C7040F2FB
:101C30006A5000F009F8287870BD0000400100A04B
:101C4000CC030020580000202DE9F84F1F4C002540
:101C5000012608270095C4E90067C4E902658246A9
:101C60004FF6FF7921464A46A1F1500001F084FF6A
:101C7000012000F09FFE0220C4E90007C4E90265CC
:101C800021464A46A1F1500001F076FF03204FF0B3
:101C90000408E56084E8810121464A46A1F150002C
:101CA00001F06AFF4FF40C700090C4E90260C4E9CF
:101CB000008721464A46A1F1500001F05DFF5146E0
:101CC000A4F15000BDE8F84F01F03FBF1C04002014
:101CD00030B587B005007DD04D480024016841F043
:101CE0000101016000684A4900F0010008390590CF
:101CF000086840F480000860086800F480000590DF
:101D0000086840F002000860086800F002000590D2
:101D1000086840F004000860086800F004000590BE
:101D2000086840F008000860086800F008000590A6
:101D3000086840F010000860086800F01000059086
:101D4000086840F020000860086800F02000059056
:101D5000086840F0400008600868694600F04000EC
:101D600005900220CDE9024001900C2004906020F3
:101D70000090284800F064FF012000906946264842
:101D800000F05EFF4CF2037000906946234800F0BB
:101D900057FF4FF6837000906946214800F050FFCE
:101DA0004FF63F00009069461E4800F049FF48F298
:101DB0003310009069461C4800F042FF1B49802008
:101DC000C1E901408000C8604000086180004861AE
:101DD000800000E01AE0C1E90604C000C1E908047F
:101DE0000320C1E90A0412480C630860296308460D
:101DF0008D6300F043FD0D4800F072FD00220F21BD
:101E0000382001F0A3FA382001F092FA07B030BD73
:101E1000383802400004024000080240000C024032
:101E20000010024000140240001802400C03002081
:101E300010640240FEE7F0B50468059E656C46EA52
:101E4000034305F040451D4365640368DA63426857
:101E5000B2F5403F02D00068C160F0BD01F47F429E
:101E600001F47F0C866801F07F4301F47F0701F4E1
:101E70007F45CCB242EA0C02BEB1012E16D001F46D
:101E80007F02D20CC1F3C401022E11D0032E14D054
:101E9000190F3A0D2D0B23092C0144EA022242EAC4
:101EA00001321A4300688263F0BD1A432243F9E706
:101EB000AB0A5B0143EAC22206E0DB0FEC0A6401D5
:101EC00044EA822242EAC3320A43EBE7016818235C
:101ED000CAB2103AB2FBF3F2054B6FF30901032AC1
:101EE0009B5CC36500D9091D8165084670470000E9
:101EF000CC55000810B5014600208B698A6A4FF066
:101F0000C07453B1B3F5005F15D072B1012A0CD083
:101F1000022A0AD0032A09D104E01AB1012A06D004
:101F2000022A03D1C96AC90100D5012010BDC96ABE
:101F3000A142FAD010BD002AF7D0012AF2D0022A1D
:101F4000F3D0032AF3D010BD704700002DE9F74FFE
:101F5000DFF8A4A00026DAF8000000EB40012748D3
:101F600000EB810080688588C788E81D834620F0E3
:101F70000700401B00F0FF093AE000BF4FEADB0119
:101F80000298012901FB06000BD002290BD0017831
:101F900042780904807841EA022141EA00080024DD
:101FA0001FE0007801E0008840BA8046F7E7291B6F
:101FB00049440120491E884010EA080FDAF8000061
:101FC00000EB40010D4802D050F8212002E000EB68
:101FD0008100426800980199204480B2FFF73AFCE2
:101FE000641CAC42E3D30198401C80B2761C019083
:101FF000BE42C3D3BDE8FE8F48000020F40200209B
:1020000072B6FEE7F0B5D1E907354C6A0A68C2B18D
:1020100002682B4322F4F842144323430360D1E9BE
:1020200001231A43D1E9033423431A434B698969D5
:102030001A430A4341686FF30E010A4342600020CD
:10204000F0BDD1E901263243D1E903673E43324373
:102050004E69896932430A431A432A43016822437D
:102060006FF30E010A430260E9E7426943F6FE732B
:102070009A4342EA410141610020704770B514461D
:102080000546D1E9000210438A686FF01F03C96852
:1020900003EB421242EA4121084329696FF315011B
:1020A0000843286100F0ECFE064609E0601C07D0FA
:1020B00024B100F0E5FE801BA04201D9032070BDD1
:1020C000A8698006F2D4002070BD0000F0B56FF062
:1020D0000F058C8A2E014FEA054ECB682F034FF077
:1020E0007F4C0EEB04540AB31A03A2F580528368A6
:1020F00022431D4C23401A438260D1E9002305EBA3
:102100000313521E1A438B6806EB03231A430B8AF0
:10211000097E07EB03431A430CEB01610A43C168D4
:1021200001F070410A43C2600020F0BDD1E9002EE9
:1021300005EB0E15521E2A438D6806EB05252A4332
:102140000A4D05EB03331A430B8A097E07EB034361
:102150001A4322430CEB01610A43816801F070418C
:102160000A438260E0E70000FF0F0FFF00F0FFFF6F
:102170002DE9F8430E460746DDE9081812481546D2
:102180004FF4403242600022C0E902210F491C4650
:10219000016000F08FFA002814D139460A4800F097
:1021A00037FA00280ED12B463246414606480094A5
:1021B00000F04AFB002805D1BDE8F8430A21024897
:1021C00000F0BABABDE8F8838402002000B00240F3
:1021D0007047000078B50024009490F83C20012A54
:1021E00019D0012280F83C200A6807230568092AD3
:1021F00013D9EE680A3A02EB420293409E43EE6026
:102200000B788A680A3B03EB43039A400368DD6856
:102210002A43DA6010E0022078BD2E6902EB420208
:1022200093409E432E610B788A6803EB43039A40E8
:1022300003681D692A431A614A681F23072A13D2BB
:1022400005686E6B521E02EB820293409E436E63E2
:102250000A8893B20A79521E02EB82029340026806
:10226000556B2B43536327E005680D2A12D22E6B62
:10227000D21F02EB820293409E432E630B790A88A1
:10228000DB1F92B203EB83039A4003681D6B2A4362
:102290001A6311E0EE6A0D3A02EB820293409E430C
:1022A000EE620B790A880D3B92B203EB83039A40EE
:1022B0000368DD6A2A43DA621B4B0568194A9D42AE
:1022C0000AD10D68122D07D1556825F40005556017
:1022D000556845F48005556005689D421DD1134D34
:1022E0000B68AB4201D0112B17D1536823F4800344
:1022F0005360536843F4000353600968A9420CD14A
:102300000B490C4A0968B1FBF2F101EB810149006C
:1023100000E0491E00910029FBD180F83C400020DC
:1023200078BD000000230140002001401200001091
:102330002C00002040420F0003F082B87047006874
:10234000C06C704770B5044600680668456816F0B2
:10235000020F05F020012AD049B3216CC90603D42D
:10236000216C41F400712164816811F0405F17D144
:10237000217EA9B9C16A11F4700F02D081684905A4
:102380000ED4416821F020014160206C20F480705F
:102390002064206CC00403D4206C40F00100206451
:1023A0002046FFF7C9FF21686FF01200086016F0A1
:1023B000040F05F0800132D089B3206CC00603D42D
:1023C000206C40F4005020642068816811F4401FA4
:1023D0001ED1816B11F4401F02D08168490517D4CA
:1023E0004168490514D4816811F0405F10D1217E05
:1023F00071B9416821F080014160206C20F4805067
:102400002064206CC00503D4206C40F001002064DF
:102410002046FFF7DDFE21686FF00C00086016F023
:10242000010F05F040010FD071B120680068C007AE
:102430000AD0206C40F480302064204600F043F83D
:1024400021686FF00100086016F0200F05F0806130
:102450000ED000290CD0606C40F00200606420684F
:102460006FF0200505602046FFF768FF20680560D3
:1024700070BD70B504004FF0000503D0206C00263D
:1024800010B107E0012070BD204600F01DF8666421
:1024900084F83C60206CC00610D4206C20F4885076
:1024A00040F0020020642046FFF7A6F86664206C26
:1024B00020F0020040F00100206400E0012584F8D3
:1024C0003C60284670BD704708B500680B498842DB
:1024D00012D10B48016841F480710160006800224C
:1024E00000F4807000901146122000F02FFFBDE82C
:1024F0000840122000F01CBF08BD00000020014071
:102500004438024018B50021009190F83C20012A7F
:1025100007D0012280F83C2002689368DB0702D0D4
:1025200011E0022018BD936843F001039360314A23
:10253000314B1268B2FBF3F202EB420200E0521E92
:102540000092002AFBD102689368DB0747D0036C36
:1025500040F20164A34343F48073036453685B0552
:1025600005D5036C23F4005343F480530364036CD8
:10257000DB0404D5436C23F00603436400E04164AC
:1025800080F83C101D4B6FF02201116001684A6811
:102590001B4C22434A6059680068CA06194906D094
:1025A000884224D1816811F0405F13D01FE0884237
:1025B000F8D0154A904203D1D1F80423D206F1D0C5
:1025C000124A904213D1D1F8041301F01F011029CF
:1025D000E8D30CE0816841F08041816007E0016C44
:1025E00041F010010164416C41F00101416400209F
:1025F00018BD00002C00002040420F0000230140C5
:102600002000000400200140002101400022014080
:1026100070B590F83820012A24D0012680F838605F
:10262000022280F8392000EB0112148CD369183291
:1026300043EA04451E4C0A2B16D0092B14D0137BF9
:1026400045EA03630029016813D0CD69A5431D4302
:10265000CD6103681168196151680A291BD00929E5
:1026600019D01DE0022070BDD36803F07F432B43D7
:10267000E8E74D6AA5431D434D62036811689961FF
:1026800051680A2901D009290AD1D168026821F0CC
:102690007F41916204E0D168026821F07F411162BC
:1026A00080F83960002180F83810084670BD0000BD
:1026B0000F0003FF70B5040004D094F83900002522
:1026C00010B106E0012070BD84F83850204600F0BB
:1026D0001FF8022084F8390020680168626821F43C
:1026E0004031114301602068416BA26821F007016D
:1026F000114341632068016CE2686FF30D011143DF
:102700000164E563012084F83900002070BD0000F9
:1027100008B500680649884208D10648016841F4B6
:1027200000010160006800F40000009008BD000096
:1027300000B00240303802402DE9F843002604463C
:10274000009600680D4600684FF00407C0074FF080
:10275000030825D000F094FB81461DE040680090FE
:1027600010F0210F0FD00098800603D5E06B40F0E9
:102770000200E0630098C00703D0E06B40F0010066
:10278000E063212034E0681C06D000F079FBA0EB68
:102790000900A8424DD8A5B3206841688907DDD556
:1027A0002068C169406A01F0200100F02000084360
:1027B00035D000F065FB81462DE04068009010F0B8
:1027C000290F1FD00098000703D5E06B40F00400EC
:1027D000E0630098800603D5E06B40F00200E06300
:1027E0000098C00703D0E06B40F00100E0632920AF
:1027F0002168886084F8397084F838600120BDE869
:10280000F88316E0681C06D000F03AFBA0EB090044
:10281000A8420ED86DB120684168C906CDD521689F
:1028200012208860012084F8390084F83860002084
:10283000E5E754F83C0F40F0200044F8040984F820
:10284000018026700320DAE738B50446049894F82E
:102850003850012D10D0012584F83850022584F815
:10286000395000902046FFF7E6FA2068016841F0F1
:1028700001010160002038BD022038BD70B50400A0
:102880002BD094F83500022826D02068016821F06A
:10289000010101602068002505602068456020680E
:1028A00085602068C5602068056121682120486135
:1028B0002046FFF70BFBE56325646564A564E564CA
:1028C000256594F85C203F2191408160656584F81E
:1028D000355084F83450002070BD012070BD0000D8
:1028E0002DE9F041044600F0CBFA06465CB1022027
:1028F00084F83500002584F834502068016821F000
:10290000010101600DE00120BDE8F08100F0B8FA9E
:10291000801B052805D920206065032084F8350038
:10292000F2E720680068C007F0D1226811682048EB
:102930000140D4E901031843D4E903363343184373
:1029400063691843A3691843E3691843236A18436A
:102950000843616A042903D1D4E90B1319430843DE
:10296000106020684069666A20F0070130460E4317
:10297000012704280CD1A06A0643E06A40B1204632
:10298000FFF7B8FA20B14020606584F83570BAE7E7
:10299000206846612046FFF799FA94F85C203F21B1
:1029A00091408160656584F835700020ACE70000D7
:1029B0003F8010F070B5044600F062FA0546601CD6
:1029C00002D004480078044400F05AFA401BA042A8
:1029D000FAD370BD200000202DE9F04186B014210B
:1029E0006846FDF7F6FD2B48016800294FD14FF0EE
:1029F0000108C0F8008028480024016841F0010166
:102A000001600068022500F0010005904FF63F00CC
:102A1000CDE9000502AA03260C2782E8D00069460A
:102A20001E4800F00DF902AA694682E8D000CDE9FF
:102A300000851B4800F004F948F23310CDE9000589
:102A400002AA694682E8D000164800F0F9F84FF66D
:102A50008370CDE9000502AA694682E8D0001248D9
:102A600000F0EEF84CF20370CDE9000502AA6946C9
:102A700082E8D0000D4800F0E3F86020CDE90005C1
:102A800002AA694682E8D000094800F0D9F806B0E9
:102A9000BDE8F081180000203838024000140240E0
:102AA000000802400018024000100240000C0240E2
:102AB000000402402DE9F04F0022DFF854B1012656
:102AC0004FF00F0906FA02F401EA0403A3427DD194
:102AD00022F003075F44D7F808C895074FEA157836
:102AE00009FA08FA0AEA0C05DFF828C1604502D1A4
:102AF0004FF0000C40E0DFF820C1604502D14FF0FC
:102B0000010C39E0DFF814C1604502D14FF0020C2E
:102B100032E0DFF80CC1604502D14FF0030C2BE02E
:102B2000DFF800C1604502D14FF0040C24E0DFF86B
:102B3000F8C0604502D14FF0050C1DE0DFF8ECC095
:102B4000604502D14FF0060C16E0DFF8E4C06045A6
:102B500002D14FF0070C0FE0DFF8D8C0604502D17A
:102B60004FF0080C08E0DFF8D0C0604502D14FF00C
:102B7000090C01E04FF00A0C0CFA08FCAC4522D11C
:102B80002E4DD5F800C02CEA030CC5F800C005F1A5
:102B9000040CDCF800509D43CCF80050274D0C3558
:102BA000D5F800C02CEA030CC5F800C02D1FD5F8DD
:102BB00000C02CEA030CC5F800C0D7F8085825EA75
:102BC0000A05C7F808580568570000E01AE0032313
:102BD000BB409D430560D50800EB8505D5F820C0B6
:102BE00057074FEAD76809FA08F72CEA070CC5F827
:102BF00020C0C5689D43C5604568A543456084689D
:102C00009C438460521C102AFFF45CAFBDE8F08F37
:102C10000030014000000240000402400008024071
:102C2000000C024000100240001402400018024054
:102C3000001C02400020024000240240003C0140F1
:102C40002DE9F84FDFF8F8A10022012403254FF009
:102C50000F090AF1040BAAF1040E00BF0B6804FA75
:102C600002F63340B34270D10F7907F00307012F0A
:102C700001D0022F16D187684FEA420805FA08FCF6
:102C800027EA0C07D1F80CC00CFA08FC4CEA070C38
:102C9000C0F808C04768B7430E79C6F300169640DF
:102CA0003E4346600E79F643B6070AD0C7684FEA3E
:102CB000420C05FA0CF6B7438E6806FA0CF63E4352
:102CC000C6600E7906F00306022E10D1D60800EB7E
:102CD0008608D8F8206057074FEAD76C09FA0CF736
:102CE000BE430F6907FA0CF73743C8F8207006682F
:102CF0004FEA420C05FA0CF7BE430F7907F00307C1
:102D000007FA0CF7374307604E6816F4403F1CD0B3
:102D10004C4E376847F480473760366822F0030727
:102D200006F480460096484E07EB060CDCF808686F
:102D300097073F0F09FA07F826EA0806DFF80C8123
:102D4000404503D14FF0000841E072E0DFF8008118
:102D5000404502D14FF0010839E0DFF8F8804045E6
:102D600002D14FF0020832E0DFF8EC80404502D19A
:102D70004FF003082BE0DFF8E480404502D14FF02C
:102D8000040824E0DFF8D880404502D14FF0050860
:102D90001DE0DFF8D080404502D14FF0060816E074
:102DA000DFF8C480404502D14FF007080FE0DFF89C
:102DB000BC80404502D14FF0080808E0DFF8B08041
:102DC000404502D14FF0090801E04FF00A0808FA27
:102DD00007F848EA0608CCF80888DAF80060574691
:102DE000D1F804C09E435FEACC2C00D51E433E6060
:102DF000DBF800605F46D1F804C09E435FEA8C2C8C
:102E000000D51E433E60DEF800607746D1F804C06E
:102E10009E435FEA8C3C00D51E433E60084F083F4E
:102E20003E68D1F804C09E435FEACC3C00D51E4307
:102E30003E60521C102AFFF411AFBDE8F88F00006D
:102E4000083C01404438024000300140000002408C
:102E50000004024000080240000C02400010024042
:102E60000014024000180240001C024000200240F2
:102E7000002402400AB1816170470904FBE70000A9
:102E800001488068704700002000002070B50400F1
:102E900013D021684CF6CC400860216845F25550AB
:102EA0000860D4E9000141602168A0688860FFF7EC
:102EB000E7FF054641F601060DE0012070BD00BFA9
:102EC000FFF7DEFF401BB04205D92068C0688007CD
:102ED00001D0032070BD2068C0688007F0D1216850
:102EE0004AF6AA200860002070BD00684AF6AA21B0
:102EF0000160002070470000024881680278114498
:102F000081607047200000200B4810B5016841F433
:102F100000710160016841F480610160016841F461
:102F200080710160032000F031FA0F2000F006F8F4
:102F300000F0E6F9002010BD003C024070B50D4DD8
:102F400004464FF47A712878B1FBF0F00A49096819
:102F5000B1FBF0F001F047F948B9102C07D200227C
:102F60002146501E00F0F2F900206C6070BD012077
:102F700070BD0000200000202C0000202DE9F04151
:102F8000044690F8A00016460F4601281DD00125E2
:102F900084F8A050022084F8A10006EB860000EB24
:102FA000C60004EB800034223830FDF7E0FA3246E8
:102FB0003946204601F0D2FB2068456284F8A150D2
:102FC000002084F8A000BDE8F0810220FBE70000AB
:102FD00090F8A01001290ED0012100F8A01F0222B4
:102FE0004270064A136843F4803313604170002135
:102FF00001700846704702207047000018680140C1
:1030000070B5040004D094F8A100002510B106E0CA
:10301000012070BD84F8A050204600F04FF8022037
:1030200084F8A1002068816921F070418161D4E9B0
:1030300001010843D4E903121143084321688A6956
:1030400010438861A08AA16941EA0041206881603B
:10305000A08B216A41EA00412068C160A08CA16A6E
:1030600041EA004120680161A08D216B41EA0041E5
:103070002068416194F835002168030294F8360015
:10308000CA6A02F07F42CA622168CA6A94F8346050
:1030900043EA004032430243CA622068416B41F078
:1030A000060141632068816941F001018161C4F832
:1030B000A450012084F8A100002070BD2DE9F04744
:1030C00092B0044614216846FDF783FA302105A822
:1030D000FDF77FFA5849206888427DD104204FF0DF
:1030E000C0080B90CDF82480C00308260E900596EA
:1030F00005A800F05DF908B1FEF782FF4F480024F3
:10310000016841F080610160006800F0806011900A
:103110004A481438016841F020010160016801F05B
:1031200020011191016841F001010160016801F085
:1031300001011191016841F002010160016801F093
:1031400002011191016841F040010160016801F044
:1031500040011191016841F004010160016801F032
:1031600004011191016841F0080101600068022525
:1031700000F0080011904FF480600090CDE90154F8
:103180000E27CDE9034769462D48FFF759FD41F663
:1031900058000090CDE90154CDE90347694629481C
:1031A000FFF74EFD03200090CDE901544FF00909CF
:1031B000DFF894A0CDE9034969465046FFF740FD8A
:1031C0004FF470600090CDE90154CDE903476946A2
:1031D0005046FFF735FD00E02AE04FF40C60009008
:1031E000CDE90154DFF864A0CDE9034769465046B4
:1031F000FFF726FDCDF80080CDE90154CDE9034766
:1032000069461348FFF71CFD0096CDE90154CDE94E
:10321000034769460F48FFF713FD4FF4A050009095
:10322000CDE90154CDE9034969465046FFF708FD51
:1032300012B0BDE8F0870000006801404438024049
:103240000014024000000240000402400018024046
:1032500000080240000C024070B5044690F8A0003F
:103260000E46012820D0012584F8A050022084F8C1
:10327000A10003EB830000EBC30004EB800141F8E5
:10328000386F886A3044C1E90102C86A1044C860D6
:103290001A46204601F062FA2068456284F8A1507F
:1032A000002084F8A00070BD022070BD70B50446F7
:1032B00090F8A0000E46012820D0012584F8A050E7
:1032C000022084F8A10003EB830000EBC30004EBB1
:1032D000800151F8380F3044486088681044C86055
:1032E000C1E90A621A46204601F038FA20684562B0
:1032F00084F8A150002084F8A00070BD022070BDA9
:103300000A4808B5016841F480410160006800F492
:10331000804000900548001F016841F08051016025
:10332000006800F08050009008BD00004438024062
:10333000002809DB00F01F020121914040098000B4
:1033400000F1E020C0F8001170470000F0B40E4B0F
:103350001B680C46C3F30223C3F10705042D00D9F3
:103360000425191D072901D2002300E0DB1E0126D8
:1033700006FA05F1491E214099409E40761E1640EE
:103380003143F0BC01F0A8BD0CED00E0064900F0AF
:10339000070208684FF6FF03184040EA0220034A7C
:1033A00010430860704700000CED00E00000FA05D3
:1033B0002DE9F84F04460068DFF824A2894F8A4DB2
:1033C000C1074FF001084FF0000603D1810701D477
:1033D000400648D5CAF86860FFF752FD814605E00F
:1033E000FFF74EFDA0EB090002287DD828680001F8
:1033F000F6D42078C1077D4805D06168227A89011A
:1034000041EA027101602178890711D5016862687B
:10341000237B9201C1F3027142EA036242EA017125
:1034200001603968E26921F01F01521E11433960C1
:103430002178490608D56168227B890141EA026149
:10344000227A41EA02710160CAF86880FFF718FD2C
:10345000814605E0FFF714FDA0EB0900022843D8E0
:1034600028680001F6D52068410701D400074ED531
:10347000CAF87060FFF704FD814605E0FFF700FD24
:10348000A0EB090002282FD82868C0438000F5D59A
:1034900020784107564814D501682269237D92019E
:1034A000C1F3027142EA036242EA017101603968C4
:1034B000226A6FF0FF0321F4F85103EB022211435B
:1034C00039602178090712D501682269C1F30361C7
:1034D000920142EA0161227E41EA0271016038688C
:1034E000616A20F4403000E051E008433860CAF8D7
:1034F0007080FFF7C5FC074605E000BFFFF7C0FC82
:10350000C01B022843D82868C0438000F6D4207826
:10351000800653D534484030016841F08051016045
:103520000068344D00F080500090286840F48070AE
:103530002860FFF7A5FC074605E000BFFFF7A0FCE9
:10354000C01B022823D82868C005F7D5274D143D95
:10355000286810F4407020D0218D01F44071814220
:103560001BD0286820F440712348C0F80080066012
:1035700029602868C00710D0FFF782FC064641F298
:10358000883707E0FFF77CFC801BB84202D9032094
:10359000BDE8F88F28688007F4D5A16A1248C1F306
:1035A00001220830032A13D0016821F4F8110160C8
:1035B0002868218DC1F30B01084328602078C006DC
:1035C00004D50E4994F82C00C1F8E0010020DFE793
:1035D00002680B4B22F4F81219400A430260E7E735
:1035E000000047428C3802400038024084380240D4
:1035F0008838024000700040400E474200104742A9
:10360000FFFCFF0F2DE9F0470E46050065D0DFF8FF
:103610001481D8F80000F7B200F00F00B04207D2D2
:1036200088F80070D8F8000000F00F00B04254D1C4
:1036300028683D4C810712D5400703D5206840F427
:10364000E05020602878000703D5206840F46040EF
:1036500020602068A96820F0F000084320602878E6
:10366000C0072DD0304968680839012812D00228D7
:1036700013D0032811D00968890700292DDA2168A1
:1036800021F0030101432160FFF7FAFB814641F27B
:10369000883A0EE009688903EFE709688901ECE7D9
:1036A000FFF7EEFBA0EB0901514502D90320BDE86D
:1036B000F0872068696800F00C00B0EB810FEFD153
:1036C000D8F80010404601F00F01B14207D9077049
:1036D000006800F00F00B04201D00120E7E7287831
:1036E000400705D52068E96820F4E05008432060D1
:1036F0002878000706D52068296920F4604040EA50
:10370000C100206000F018F82168084AC1F30311D5
:10371000515CC8400649086006480068FFF70EFC87
:103720000020C4E7003C024008380240D45500089D
:103730002C00002024000020154810B5006810F06F
:103740000C02144813D04110042A0FD0082A0ED1BD
:103750000F4C241F2268236802F03F025B0207D54A
:103760002068C0F38810A0FB010106E0084610BDE8
:103770002168C1F38811A1FB00010023FCF796FD2D
:103780002168C1F30141491C4900B0FBF1F010BDB3
:10379000083802400024F4002DE9F84F04006ED0F0
:1037A0002078DFF84C93C007A9F104054AD009F14D
:1037B00004000168C1F38101012908D00068C0F349
:1037C000810002280AD1D9F80000400206D52868F5
:1037D000800337D560680028E1D033E06068B0F539
:1037E000803F10D0B0F5A02F286810D020F4803092
:1037F0002860286820F4802028606068A8B1FFF75E
:103800003FFB06460DE0286840F48030F4E740F4C2
:1038100080202860F7E700BFFFF732FB801B642899
:1038200073D828688003F7D50CE0FFF729FB06461C
:1038300005E000BFFFF724FB801B6428F0D8286850
:103840008003F7D42078DFF8AC8280074FF0000ABD
:103850003ED5A748001D016811F00C0F08D0006884
:10386000C0F3810002280BD1D9F80000400207D430
:103870002868800716D5E068012800D112E033E1FE
:10388000E068B8B10120C8F80000FFF7F9FA064671
:1038900005E000BFFFF7F4FA801B0228C0D82868B3
:1038A0008007F7D52868216920F0F80040EAC100B8
:1038B00028600DE0C8F800A0FFF7E2FA064604E031
:1038C000FFF7DEFA801B02281FD828688007F7D48C
:1038D0002078000722D5864F87486169703771B11B
:1038E00001210160FFF7CCFA064604E0FFF7C8FAB1
:1038F000801B022809D838688007F7D50EE0C0F889
:1039000000A0FFF7BDFA064605E082E0FFF7B8FA2F
:10391000801B02287DD838688007F7D420784007BC
:1039200068D5DFF8CCB100270BF13C0BDBF80000C9
:10393000C0000BD4DBF8001041F08051CBF8001030
:10394000DBF80000012700F0805000906B4E3068DB
:10395000C00510D4306840F480703060FFF790FAF2
:10396000009005E0FFF78CFA0099401A022850D821
:103970003068C005F6D55E4EA0686C3601280FD0C1
:103980000528306810D020F001003060306820F049
:1039900004003060A068B8B1FFF772FA00900FE041
:1039A000306840F00100F4E740F004003060F7E7D1
:1039B000FFF766FA0099411A41F28830814266D8D1
:1039C00030688007F4D50EE0FFF75AFA009007E060
:1039D000FFF756FA0099411A41F28830814256D8D1
:1039E00030688007F4D42FB1DBF8001021F080514B
:1039F000CBF80010A069C8B33D49091D0968C1F39F
:103A0000810102294AD00228504607D0C8F8600038
:103A100000E03CE0FFF734FA04463BE04746C8F8D4
:103A20006000FFF72DFA064605E000BFFFF728FA11
:103A3000801B02282BD828688001F7D4D4E907011D
:103A40000843A16A2E4A490802EB0141626A41EA31
:103A50008211084394F82C1040EA0161C9F8001063
:103A600001203866FFF70CFA044606E03EE000BF8E
:103A7000FFF706FA001B022809D828688001F7D54D
:103A800034E000BFFFF7FCF9001B022802D9032035
:103A9000BDE8F88F28688001F4D427E00128F7D02A
:103AA000D9F80000E26900F4800191421CD1226A39
:103AB00000F03F01914217D147F6C071626A0140A0
:103AC000B1EB821F10D1A26A4FF0FF3300F44031F6
:103AD00003EB5202B1EB024F06D194F82C1000F028
:103AE0007060B0EB016F01D00120D1E70020CFE77B
:103AF0000438024000004742800E474200700040F8
:103B00000000FFFF70B50D46040003D094F82C00B0
:103B100010B107E0012070BD002084F82D00204680
:103B200000F011F8022084F82C00211D2068FEF717
:103B300069FAD4E900022946FEF7C8FA012084F8A0
:103B40002C00002070BDFEF747BF10B5044690F86A
:103B50002C00022804D094F82C00012801D0012068
:103B600010BD022084F82C002068FEF77EFA0120A8
:103B700084F82C00002010BD70B5044690F82C008D
:103B80000D46022804D0012803D0052801D00120C9
:103B900070BD022084F82C002068FEF76FFA2868B8
:103BA000022805D05FF0010084F82C00002070BDD1
:103BB0000520F9E710B5040011D0022084F8510067
:103BC0002068016821F040010160204600F06AF899
:103BD0000020606584F8510084F8500010BD012079
:103BE00010BD90F85100704770B5040009D0606AAC
:103BF000002540B125616561A56294F8510040B18E
:103C00000CE0012070BD6068B0F5827FF4D0E56102
:103C1000F2E784F85050204600F05AF8022084F869
:103C200051002068016821F040010160A0882189CD
:103C300000F4827001F404410843A18901F4006199
:103C40000843217C01F002010843217D01F00101BC
:103C50000843218B01F400710843217F01F03801F2
:103C6000084394F8201001F080010843218D01F4ED
:103C70000051084321680860A069042101EA10404E
:103C800094F8241001F0100108432168486020686E
:103C9000C16921F40061C1616565012084F85100AA
:103CA000002070BD00680749884209D106480168B4
:103CB00021F4004101604FF440610448FEF7FABE70
:103CC00070470000003C00404038024000080240BD
:103CD00010B586B0044614216846FCF77AFC1449F6
:103CE0002068884221D113480021026842F4004232
:103CF0000260006800F4004005900E481038026829
:103D000042F004020260006800F0040005904FF4E5
:103D1000406000900220CDE90101032003900620BD
:103D2000049069460448FEF78BFF06B010BD000002
:103D3000003C004040380240000802402DE9F84FA6
:103D4000044690F851001D4616460F46012838D10A
:103D5000002F77D0002E75D060684FF00408B0F5C2
:103D6000827F01D1A06810B3FFF78AF8824694F8E9
:103D70005000012825D04FF0010984F8509084F8B4
:103D800051804FF00008C4F85480A763A687E687E7
:103D9000C4F83080A4F83480A4F83680C4F8408099
:103DA000C4F84480A068B0F5004F0CD015E084F84A
:103DB0005180009313460A46204600F01CF9BDE8E6
:103DC000F88F0220FBE72068016821F040010160C4
:103DD0002068016821F4804101602068016849067B
:103DE00003D4016841F040010160E068C0B134E0F3
:103DF00020688168C90709D0007BA16B0870A06B9F
:103E0000401CA063E08F401EE08709E0FFF738F810
:103E1000A0EB0A00A84202D3681C01D032E085B3AF
:103E2000E08F0028E4D11BE020688168C9070AD030
:103E3000C068A16B0880A06B801CA063E08F401E4F
:103E4000E0870AE01BE0FFF71BF8A0EB0A00A8429E
:103E500002D3681C01D015E09DB1E08F0028E3D1AA
:103E600052462946204600F0F4FD08B12020606546
:103E700084F8519084F85080606D00289FD0012014
:103E80009DE7FFE784F8519084F85080032096E77F
:103E90002DE9F84F984616468A460446FEF7F0FF8D
:103EA000814694F8510001281ED1BAF1000F73D059
:103EB000002E71D094F85000012815D0012784F805
:103EC0005070032084F8510000256565C4F830A0C7
:103ED000A686E686A563A587E58765642564A06850
:103EE000B0F5004F03D00CE00220BDE8F88F206849
:103EF000016821F0400101602068016841F48041BF
:103F0000016020680168490603D4016841F040015E
:103F10000160E068B0F5006F606803D048B3012E1F
:103F200027D047E008B1012E1FD1206B21680088FF
:103F3000C86006E020688168890709D5216B098877
:103F4000C160206B801C2063E08E401EE0860CE088
:103F5000FEF796FFA0EB0901414503D3B8F1FF3FFF
:103F600003D035E0B8F1000F32D0E08E0028E1D167
:103F700023E0206B21680078087306E020688168E0
:103F800089070AD5216B09780173206B401C2063D7
:103F9000E08E401EE0860DE02BE0FEF771FFA0EB07
:103FA0000901414503D3B8F1FF3F03D010E0B8F158
:103FB000000F0DD0E08E0028E0D14A464146204651
:103FC00000F076FD08B120206065A06830B109E0FE
:103FD00084F8517084F85050032086E72068C16847
:103FE0008068009084F8517004F8505F6068002881
:103FF000F3D0012079E72DE9FF4F81B01D469346AC
:1040000004464FF001090E9EFEF73AFF074694F86A
:1040100051006168012806D0B1F5827F3CD1A168CA
:10402000C9BB042838D10298002871D0BBF1000F19
:10403000FBD0002DF9D094F8500001282CD04FF07F
:10404000010A84F850A094F85100042802D00520F9
:1040500084F851004FF00008C4F85480C4F838B018
:10406000E587A58702992163E586A586C4F8408087
:10407000C4F8448020680168490603D4016841F00F
:1040800040010160E068B0F5006F606808D0F0B3EF
:10409000012D49D081E0FFE7022005B0BDE8F08F97
:1040A00008B1012D39D1206B21680088C860206BD0
:1040B000801C2063E08E401EE0862EE02068816830
:1040C00089070FD5E18E69B1B9F1010F0AD1216BD2
:1040D0000988C160206B801C2063E08E401EE08652
:1040E0004FF0000920688168C9070CD0E18F51B1F9
:1040F000C068A16B0880A06B801CA063E08F401E8D
:10410000E0874FF00109FEF7BBFEC01B01E00BE0AA
:1041100067E0B04201D3701C50D1E08E0028CDD1B1
:10412000E08F0028CAD13EE0206B21680078087338
:10413000206B401C2063E08E401EE0862DE020684E
:10414000816889070FD5E18E69B1B9F1010F0AD1F4
:10415000216B09780173206B401C2063E08E401EA8
:10416000E0864FF0000920688168C9070CD0E18F14
:1041700051B1C068A16B0870A06B401CA063E08FB8
:10418000401EE0874FF00109FEF77AFEC01BB042E7
:1041900002D3701C01D011E086B1E08E0028CED190
:1041A000E08F0028CBD13A463146204600F080FC13
:1041B00050B12020606584F8508012E084F851A04E
:1041C00084F85080032068E7A06818B92068C168A7
:1041D0008068009084F851A084F85080606D0028B9
:1041E000F1D0012059E710B5401EB0F1807F01D316
:1041F000012010BD4FF0E02460610F21601700F036
:104200006BFE0020A06107202061002010BD7047D8
:104210007047000070B590F83C20012A32D001248C
:1042200080F83C40022280F83D2003685A689D686F
:1042300022F070060A6832435A60134B02689A42B1
:1042400014D0B2F1804F11D0104B9A420ED0104BC7
:104250009A420BD00F4B9A4208D00F4B9A4205D08E
:104260000E4B9A4202D00E4B9A4204D1496825F077
:1042700080031943916080F83D40002180F83C1094
:10428000084670BD022070BD0000014000040040DF
:1042900000080040000C00400004014000400140C4
:1042A0000018004010B5040003D094F83D0010B190
:1042B00007E0012010BD002084F83C00204600F0FB
:1042C0001FF8022084F83D00211D206800F04EFDFB
:1042D000012084F8460084F83E0084F83F0084F80A
:1042E000400084F8410084F8420084F8430084F8D8
:1042F000440084F8450084F83D00002010BD000013
:1043000008B500680B49884212D10B48016841F09A
:10431000020101600068002200F0020000901146D6
:104320001D20FFF713F8BDE808401D20FFF700B877
:1043300008BD0000000400404038024090F83D10E5
:10434000012901D001207047022180F83D10016849
:10435000CA6842F00102CA6000681149884214D05C
:10436000B0F1804F11D00F4988420ED00E498842DB
:104370000BD00E49884208D00D49884205D00D491E
:10438000884202D00C49884204D1816801F00701BB
:10439000062903D0016841F0010101600020704747
:1043A000000001400004004000080040000C0040F4
:1043B00000040140004001400018004070B5044670
:1043C00090F83C000025012817D0012684F83C60B5
:1043D000022084F83D002068826822F0770222F4EF
:1043E0007F4282600868502838D00DDC20284FD0EA
:1043F00005DC90B3102811D14AE0022070BD3028AE
:1044000046D040280AD13BE060282FD070280DD03C
:10441000B0F5805F03D0B0F5005F12D0012584F8BD
:104420003D60002084F83C00284670BDCB68D1E98F
:104430000121206800F002FD2068816841F07701C9
:1044400009E0CB68D1E90121206800F0F7FC206881
:10445000816841F480418160E1E719E0CA684968F8
:10446000206800F0FDFC5021206806E0CA68496819
:10447000206800F006FD6021206800F0E9FCCEE72E
:10448000CA684968206800F0EBFC40212068F4E726
:10449000226801461046F0E770472DE9F0410446D6
:1044A0000068C66805694FF00007A90713D5B10772
:1044B00011D5F91E016101202077206880698007ED
:1044C000204602D0FFF7E8FF04E000F07EF8204627
:1044D00000F07CF82777680716D5700714D5216897
:1044E0006FF004000861022020772068806910F4D2
:1044F000407F204602D0FFF7CFFF04E000F065F8D0
:10450000204600F063F82777280715D5300713D524
:1045100021686FF008000861042020772068C069D6
:104520008007204602D0FFF7B7FF04E000F04DF807
:10453000204600F04BF82777E80616D5F00614D58C
:1045400021686FF010000861082020772068C0699A
:1045500010F4407F204602D0FFF79EFF04E000F0F9
:1045600034F8204600F032F82777E80708D0F00743
:1045700006D021686FF001000861204600F027F89E
:10458000280608D5300606D521686FF0800008613E
:104590002046FFF73CFE680608D5700606D5216860
:1045A0006FF040000861204600F012F8A8060AD516
:1045B000B00608D521686FF0200008612046BDE8EC
:1045C000F041FFF725BEBDE8F081704770477047A6
:1045D0007047FEE7FEF7EEB92DE9F041244886B0BA
:1045E0000178002940D1234C012505702068002660
:1045F00040F0080020602068022700F008000590C5
:1046000068038DE8E100DFF8708069464046FEF7F8
:1046100017FB206840F0080020602068694600F021
:1046200008000590A0148DE8E1004046FEF708FB65
:10463000206840F0040020602068104C00F0040066
:10464000059004208DE8E10069462046FEF7F8FA5F
:10465000002204212046FEF70DFC01220421204601
:10466000FEF708FC00F0C2FA06B0BDE8F0810000D9
:104670003000002030380240000C024000080240A8
:104680002DE9F843154D0C46074600220421284623
:10469000FEF7F0FBDFF848804FF400560022314669
:1046A0004046FEF7E7FB384600F0EEFA0D4822469A
:1046B0006946C3680C48FFF741FB08B100F08CFA6B
:1046C000012231464046009CFEF7D4FB0122042122
:1046D0002846FEF7CFFB2046BDE8F88300080240DD
:1046E000000C0240300000208401002070B5054617
:1046F000012251030948FEF7BDFB094C00220421A9
:104700002046FEF7B7FB284600F0BEFA2046BDE87B
:10471000704001220421FEF7ADBB0000000C0240F6
:104720000008024070B5054600224FF400510948C8
:10473000FEF7A0FB084C002204212046FEF79AFB5E
:10474000284600F0A1FA2046BDE87040012204216D
:10475000FEF790BB000C024000080240F0B5036871
:104760008C88DD68C5F30B452C442504882404EBB4
:10477000C2141E5906F470461E5103680F68DE68A5
:10478000C6F30B46761C3E442E431E5103688C89AB
:10479000DD68C5F30A052C4425048C2404EBC214FF
:1047A0001E5906F470461E5103688F68DE68C6F312
:1047B0000A06761C3E442E431E519423046803EBE4
:1047C000C213E55825F00705E55005680C69EC5063
:1047D00091F831300C7E1E0291F8323091F8305051
:1047E0001B04354343EA04631D439C24036804EB24
:1047F000C2141D519823046803EBC213E55825F039
:10480000FF05E55005684C69EC50A023046803EBF4
:10481000C213E55840F20776B543E550D1E90745A4
:104820002C430568EC50AC25046805EBC2154B6AB7
:1048300063510B698BB3012B32D0042B32D0022B86
:1048400030D0032B2ED0072B2CD00123B0240568A9
:1048500004EBC2142E5906F0E0262E51D1E9006572
:10486000AD1B0E8D5D435E43ED1C45EA06430568B6
:104870002B51B423046803EBC213E5586FF30A0508
:10488000E5500468C96AE1500068842101EBC21157
:10489000425842F001024250F0BDFFE70423D5E741
:1048A0000323D3E70223D1E77FB500211A48009103
:1048B00001910291174C03914FF440320460C0E91A
:1048C00001210161017680F820104FF08052C26210
:1048D00001255210C5618262C16080F830104561C7
:1048E000FDF7C7FD08B172B6FEE7D4F8040340F443
:1048F0000000C4F804030948CDE900050720029030
:1049000069460548FDF766FC002801D072B6FEE74F
:104910007FBD000000200140940000201200001024
:1049200070B586B014216846FBF753FE2A48002470
:10493000016841F020010160016801F0200105914A
:10494000016841F080010160016801F0800105917A
:10495000016841F004010160016801F00401059162
:10496000016841F001010160016801F00101059158
:10497000016841F002010160016801F00201059146
:10498000016841F040010160016801F040010591BA
:10499000016841F010010160016801F0100105910A
:1049A000016841F00801016000680C4E00F0080049
:1049B0004FF480450590002229463046FEF75AFA0A
:1049C00001200095CDE90104694630460394FEF7C5
:1049D00037F906B070BD00003038024000180240C0
:1049E00010B586B0002418480094019402940394F2
:1049F000049414490594016042F2CF01C0E9011406
:104A000041F28731C0E903148461FFF74BFC08B120
:104A100072B6FEE74FF48050009069460A48FFF7EF
:104A2000CDFC08B172B6FEE72020CDE9040404A94C
:104A30000548FFF7EFFB002801D072B6FEE706B08D
:104A400010BD000000040040E8000020FEE7FEE783
:104A50007047F8B5044640684FF48273984221D1FC
:104A6000A0684FF48065B0F5004F01D0A8420AD18C
:104A70002068066826F0400606606068984211D1FA
:104A8000A068A8420ED000920B460022802120464A
:104A900000F044F8002804D0606D40F0200060650C
:104AA0000320F8BD00920B4600220121EFE7000031
:104AB000F8B515460E460B46009204460122022127
:104AC00000F02CF8A0B9134813490068B0FBF1F0CE
:104AD0004FF47A71484300906068B0F5827F0DD141
:104AE0003346002280212046009500F017F870B16F
:104AF000606D40F0200060650320F8BD009830B183
:104B0000401E009020688068C0430006F6D5002053
:104B1000F8BD00002C00002000366E012DE9F8439E
:104B20001E46914688460446089DFEF7A9F9401B9B
:104B3000351AFEF7A5F9074626480068C0F3CB30C2
:104B400068430AE0701C09D0FEF79AF9C01BA8421E
:104B50000FD275B10098B8B3401E009020688168EC
:104B600038EA010033D000214945EBD10020BDE8EF
:104B7000F8832068416821F0E00141606068B0F589
:104B8000827F0BD1A068B0F5004F02D0B0F5806FE6
:104B900004D12068016821F040010160A06AB0F5ED
:104BA000005F09D12068016821F40051016020688C
:104BB000016841F400510160012084F85100002097
:104BC00084F850000320D2E7FFE70025C6E7012163
:104BD000CAE700002C00002010B50348FEF7EAFFEA
:104BE000BDE8104000F002B88401002000B587B095
:104BF0002148FEF7F6FF00283BD11F481F490160FE
:104C00001821C16100218160416107220161C0E971
:104C10000A12C1604FF400720162826141624FF476
:104C2000827141601648016841F48011016000689A
:104C300000F48010059012481438016841F02001FA
:104C400001600068694600F0200005904FF4607034
:104C50000090022001900290012003900520049012
:104C60000848FDF7EDFF07B003485DF804EBFEF7D9
:104C7000BBBF07B000BD0000840100200050014010
:104C8000443802400014024001B50648012269463A
:104C9000C3680548FFF7FCF8002801D0FFF79CFF28
:104CA00008BD000030000020840100207047FEF79E
:104CB00023B9000030B593B030216846FBF789FC7A
:104CC00014210CA8FBF785FC1F480025016841F062
:104CD00080510160006800F0805011901B4801680D
:104CE00041F4404101600068022400F4404011900A
:104CF000092000904FF4803001900120CDE9050497
:104D000080050790082008904FF4A870CDE90904A9
:104D100004200B906846FEF73FFD08B172B6FEE72F
:104D20000CA90F2081E831004FF4A0500F904FF4F0
:104D30008050109005210CA8FEF764FC002801D0DB
:104D400072B6FEE713B030BD40380240007000403C
:104D50000248016841F470010160704788ED00E08D
:104D60000148FFF79ABB0000E8000020F0B5026898
:104D7000274B284D284E294F294C4FF0804C984204
:104D800009D0604507D0A84205D0B04203D0B84250
:104D900001D0A04204D122F0700E4A6842EA0E020D
:104DA00098421BD0604519D0A84217D0B04215D008
:104DB000B84213D0A04211D01A4DA8420ED01A4DBD
:104DC000A8420BD0194DA84208D0194DA84205D0D1
:104DD000184DA84202D0184DA84203D122F44075C4
:104DE000CA682A434D6922F080022A438D68C56251
:104DF0000D688562984201D0A04201D10969016322
:104E0000016841F004010160012141610260F0BDCF
:104E1000000001400004004000080040000C004079
:104E200000040140004001400044014000480140AE
:104E300000180040001C00400020004010B58468AD
:104E400042EA032224F47F440A432243826010BDD5
:104E5000826822F070020A4342F0070181607047C5
:104E600010B5036A046A24F001040462846924F022
:104E7000F00444EA021423F00A020A438461026245
:104E800010BD10B5036A046A24F01004046284693A
:104E900023F0A00324F4704444EA023243EA0111EF
:104EA0008261016210BDFEE703B4019841000098E1
:104EB00050EAC12018BF04204A0D18BF40F001007D
:104EC00040F2FF72B2EB515F08BF40F002000128D0
:104ED00008BF052002B070470907090E002804DB4F
:104EE00000F1E02080F80014704700F00F0000F19E
:104EF000E02080F8141D704730380A2801D20120C4
:104F0000704700207047000010B50E4C0E48224636
:104F1000D4ED020A12784FF48041B4EEE00AF1EECB
:104F200010FA06DD002A0BD10122FDF7A3FF0120B4
:104F300005E0002A04D00022FDF79CFF002020702D
:104F400010BD0000040000200018024000EE100A0E
:104F5000F0EE081A9FED0C2AB8EE400A9FED081AF1
:104F6000DFED080A60EE211A81EE820A30EE410A76
:104F700080EE201AB3EE090A31EE000A70470000F5
:104F80005C8F423F0AD7233B00F07F4510B588B0C5
:104F900010EE100A00F0A2FACDE900010EA21421D1
:104FA00002A8FBF707FA4FF07F442046FCF704FE07
:104FB0001423F0228C210020FCF766FC2016FCF75D
:104FC000FBFD2046FCF7C6FD012302AA8C21002030
:104FD000FCF7DEFB08B010BD252E32662043000032
:104FE00005490968C90105D54FF060410A68002AE2
:104FF000FCD0087070470000FCED00E010B50F4CCD
:105000002068800002D50EA0FBF7C8F92068400197
:1050100002D516A0FBF7C2F92068000102D51EA038
:10502000FBF7BCF92068C00002D520A0FBF7B6F959
:10503000206840F08070206010BD0000743802408D
:105040005741544348444F472052455345543A2012
:1050500048C44E474552204245492057454E49478E
:10506000204C415354210D0A000000005245534585
:10507000542064757263682065787465726E656E1D
:105080002052657365742D50696E20284E5253541A
:1050900029210D0A00000000506F7765722D4F6EB8
:1050A0002D5265736574210D0A000000536F6674FC
:1050B000776172652D5265736574210D0A000000D9
:1050C000094A61B1D2ED010AB4EEE00AF1EE10FA3C
:1050D00001D2012100E00021117011B170470021BF
:1050E0001170FDF702BF0000100000202820FFF71C
:1050F00019BB2920FFF716BB4FF4A0707047F020B2
:10510000704710B5FFF768FACA20FFF70BFBC32002
:10511000FFF7ECFA0820FFF7E9FA5020FFF7E6FA6C
:10512000CF20FFF7FFFA0020FFF7E0FAC120FFF7DA
:10513000DDFA3020FFF7DAFAED20FFF7F3FA64200A
:10514000FFF7D4FA0320FFF7D1FA1220FFF7CEFAC7
:105150008120FFF7CBFAE820FFF7E4FA8520FFF77C
:10516000C5FA0020FFF7C2FA7820FFF7BFFACB207C
:10517000FFF7D8FA3920FFF7B9FA2C20FFF7B6FA73
:105180000020FFF7B3FA3420FFF7B0FA0220FFF750
:10519000ADFAF720FFF7C6FA2020FFF7A7FAEA20BA
:1051A000FFF7C0FA0020FFF7A1FA0020FFF79EFAF0
:1051B000B120FFF7B7FA0020FFF798FA1B20FFF79E
:1051C00095FAB620FFF7AEFA0A20FFF78FFAA22071
:1051D000FFF78CFAC020FFF7A5FA1020FFF786FA38
:1051E000C120FFF79FFA1020FFF780FAC520FFF7D4
:1051F00099FA4520FFF77AFA1520FFF777FAC720CA
:10520000FFF790FA9020FFF771FA3620FFF78AFA3D
:10521000C820FFF76BFAF220FFF784FA0020FFF7AF
:1052200065FAB020FFF77EFAC220FFF75FFAB620DA
:10523000FFF778FA0A20FFF759FAA720FFF756FA86
:105240002720FFF753FA0420FFF750FA2A20FFF730
:1052500069FA0020FFF74AFA0020FFF747FA00201A
:10526000FFF744FAEF20FFF741FA2B20FFF75AFA35
:105270000020FFF73BFA0020FFF738FA0120FFF784
:1052800035FA3F20FFF732FAF620FFF74BFA0120FC
:10529000FFF72CFA0020FFF729FA0620FFF726FA7D
:1052A0002C20FFF73FFAC820FFF794F92620FFF7DC
:1052B00039FA0120FFF71AFAE020FFF733FA0F203E
:1052C000FFF714FA2920FFF711FA2420FFF70EFA4E
:1052D0000C20FFF70BFA0E20FFF708FA0920FFF762
:1052E00005FA4E20FFF702FA7820FFF7FFF93C207D
:1052F000FFF7FCF90920FFF7F9F91320FFF7F6F99A
:105300000520FFF7F3F91720FFF7F0F91120FFF759
:10531000EDF90020FFF7EAF9E120FFF703FA00209A
:10532000FFF7E4F91620FFF7E1F91B20FFF7DEF99C
:105330000420FFF7DBF91120FFF7D8F90720FFF76A
:10534000D5F93120FFF7D2F93320FFF7CFF942200A
:10535000FFF7CCF90520FFF7C9F90C20FFF7C6F9D4
:105360000A20FFF7C3F92820FFF7C0F92F20FFF725
:10537000BDF90F20FFF7BAF91120FFF7D3F9C820C4
:10538000FFF728F92920FFF7CDF9BDE810402C20C0
:10539000FFF7C8B910B5FFF71FF90321D320FFF7B6
:1053A0006FF980B210BD000008B5FDF7ADFDFFF745
:1053B00081FCFFF7B5FAFFF777FAFFF711FBFFF76C
:1053C0001DFE1B48FDF79EF819485430FEF7B6FF46
:1053D00017481849483001600021416040F6FF71CC
:1053E0008160FDF753FD08B172B6FEE7FCF78CFA59
:1053F0004FF050410020FCF7D1FA0020FCF7A4FB4D
:105400004FF4A07000220090F02311461046FCF7E4
:10541000BDFB4FF07F40FCF783F9074C074D044874
:10542000217895ED000A4830FFF74AFEF7E70000C3
:1054300094000020003000400500002008000020FB
:1054400070B52DED028BFCF77AFF0446FFF77EFD69
:105450000E4DB0EE408A85ED018AFFF755FD012023
:105460006870B0EE480AFFF791FD18EE100A00F0E0
:1054700035F841EC100BBDEC028B2146BDE87040C5
:1054800053EC102B02A0FAF789BF000004000020A3
:105490004144433A202564202D3E20252E326620AB
:1054A000B0430A0010B500290AD00878002807D0B8
:1054B00005487844FBF78AFC002801D0002010BD85
:1054C0000248784410BD00009E1C0000961C00009D
:1054D0000808A0F500114FEA3101704743004FEA78
:1054E000D30C4FEA3C0C43401FBF40070CF1605106
:1054F00013F0FE4F70471CF0006F03D100200CF03A
:10550000004170470CF0004343EA507010B540EA88
:10551000CC0000F00EF800BF000000924FEA00013E
:10552000FFF7D6BF4FF000414FF00000A1F500217A
:1055300070470EF1020E2EF0030E5EF8044B24426B
:1055400004D44FEA4102B2F17F4F11D84FEA400331
:10555000B3F17F4F0CD80ED14FEAD07CB2F17F4F20
:105560000CEB4C0C0CF1020C08BF4CEBD17C04E0B2
:105570004FF0080C01E04FEAD17C0CEB4C0324FA0D
:1055800003F404F00704B4F1040C06D20EEB840C0F
:10559000BDE810404CF0010C6047DFE80CF0070854
:1055A00002024FF00040A0F5800010BD0846420006
:1055B00018BFD2F1807288BF00F0004010BD4FF0DC
:1055C0004070E1EE100A7047FBF75FB90006101655
:1055D0000006101600000000000000000102030495
:1055E000060708090000000000000000000000009D
:1055F00000000000000000000000000000000000AB
:10560000000000000000000000000000000000009A
:10561000000000000000000000000000000000008A
:10562000000000000000000000000000000000007A
:1056300000000380000380000380000380000380DB
:10564000000380000380000380000380000100004D
:105650000100000000000000000380000380000043
:10566000000000000000000000000000000000003A
:10567000000000000000000000000000000E7000AC
:105680000E70000E700004200004200004200004AE
:1056900020000000000000000000000000000000EA
:1056A00000000000000000000000000000000000FA
:1056B00000000000000000000000000000000000EA
:1056C00000000660000660000660000660000660DC
:1056D000003FF8003FF8000660000CC0003FF800F3
:1056E0003FF8000CC0000CC0000CC0000CC0000C47
:1056F000C0000000000000000000000000000000EA
:105700000000000000000001800001800007B000E0
:105710000FF0001870001870001C00000F800007C8
:10572000E00000F0001830001C30001C70001FE08A
:10573000001BC0000180000180000180000180008A
:105740000000000000000000000000000000000059
:1057500000000780000FC0001CE000186000186007
:10576000001CE0000FF80007E0001FF00007380001
:1057700006180006180007380003F00001E00000DA
:105780000000000000000000000000000000000019
:105790000000000000000000000000000000000009
:1057A00003F00007F0000C60000C00000C00000685
:1057B00000000700000F9C001DFC0018F00018708E
:1057C000000FFC0007DC00000000000000000000EB
:1057D00000000000000000000000000000000000C9
:1057E000000000000003800003800003800001002F
:1057F00000010000010000010000000000000000A6
:105800000000000000000000000000000000000098
:105810000000000000000000000000000000000088
:105820000000000000000000000000180000380028
:1058300000700000F00000E00000E00001C0000186
:10584000C00001C00001C00001C00001C00000E0B4
:105850000000E00000700000700000380000180038
:105860000000000000000000000000000000000038
:1058700000001800001C00000E00000E00000700D1
:105880000007000003800003800003800003800005
:105890000380000380000700000700000F00000ED7
:1058A00000001C00001800000000000000000000C4
:1058B00000000000000000000000018000018000E6
:1058C0000180001DB8001FF80007E00003C00003BE
:1058D000C00006600006600000000000000000003C
:1058E00000000000000000000000000000000000B8
:1058F00000000000000000000000000000000000A8
:105900000000000000000000018000018000018014
:10591000000180000180003FFC003FFC000180008E
:105920000180000180000180000180000000000073
:105930000000000000000000000000000000000067
:105940000000000000000000000000000000000057
:105950000000000000000000000000000000000047
:10596000000000000000000000000000000000E057
:105970000000C00001C000018000018000030000A1
:105980000300000000000000000000000000000014
:105990000000000000000000000000000000000007
:1059A000000000000000001FF8001FF800000000C9
:1059B00000000000000000000000000000000000E7
:1059C00000000000000000000000000000000000D7
:1059D00000000000000000000000000000000000C7
:1059E00000000000000000000000000000000000B7
:1059F000000000000000000000000000000003C0E4
:105A00000003C00003C00000000000000000000010
:105A1000000000000000000000000000001800006E
:105A200018000038000030000070000060000060C6
:105A30000000C00000C000018000018000030000E1
:105A40000300000600000600000E00000C00001C11
:105A50000000180000180000000000000000000016
:105A60000000000000000000000003C00007E0008C
:105A70000C30000C30001818001818001818001806
:105A800018001818001818001818000C30000C30F6
:105A90000007E00003C0000000000000000000005C
:105AA00000000000000000000000000000000000F6
:105AB00000000080000780001F80001D8000018022
:105AC0000001800001800001800001800001800051
:105AD0000180000180000180001FF8001FF8000015
